{
  "_format": "hh-sol-artifact-1",
  "contractName": "EeggGovernorV1",
  "sourceName": "contracts/EeggGovernorV1.sol",
  "abi": [
    {
      "inputs": [],
      "stateMutability": "nonpayable",
      "type": "constructor"
    },
    {
      "inputs": [],
      "name": "Empty",
      "type": "error"
    },
    {
      "anonymous": false,
      "inputs": [
        {
          "indexed": false,
          "internalType": "uint8",
          "name": "version",
          "type": "uint8"
        }
      ],
      "name": "Initialized",
      "type": "event"
    },
    {
      "anonymous": false,
      "inputs": [
        {
          "indexed": false,
          "internalType": "uint256",
          "name": "proposalId",
          "type": "uint256"
        }
      ],
      "name": "ProposalCanceled",
      "type": "event"
    },
    {
      "anonymous": false,
      "inputs": [
        {
          "indexed": false,
          "internalType": "uint256",
          "name": "proposalId",
          "type": "uint256"
        },
        {
          "indexed": false,
          "internalType": "address",
          "name": "proposer",
          "type": "address"
        },
        {
          "indexed": false,
          "internalType": "address[]",
          "name": "targets",
          "type": "address[]"
        },
        {
          "indexed": false,
          "internalType": "uint256[]",
          "name": "values",
          "type": "uint256[]"
        },
        {
          "indexed": false,
          "internalType": "string[]",
          "name": "signatures",
          "type": "string[]"
        },
        {
          "indexed": false,
          "internalType": "bytes[]",
          "name": "calldatas",
          "type": "bytes[]"
        },
        {
          "indexed": false,
          "internalType": "uint256",
          "name": "startBlock",
          "type": "uint256"
        },
        {
          "indexed": false,
          "internalType": "uint256",
          "name": "endBlock",
          "type": "uint256"
        },
        {
          "indexed": false,
          "internalType": "string",
          "name": "description",
          "type": "string"
        }
      ],
      "name": "ProposalCreated",
      "type": "event"
    },
    {
      "anonymous": false,
      "inputs": [
        {
          "indexed": false,
          "internalType": "uint256",
          "name": "proposalId",
          "type": "uint256"
        }
      ],
      "name": "ProposalExecuted",
      "type": "event"
    },
    {
      "anonymous": false,
      "inputs": [
        {
          "indexed": false,
          "internalType": "uint256",
          "name": "oldProposalThreshold",
          "type": "uint256"
        },
        {
          "indexed": false,
          "internalType": "uint256",
          "name": "newProposalThreshold",
          "type": "uint256"
        }
      ],
      "name": "ProposalThresholdSet",
      "type": "event"
    },
    {
      "anonymous": false,
      "inputs": [
        {
          "indexed": false,
          "internalType": "uint256",
          "name": "oldQuorumNumerator",
          "type": "uint256"
        },
        {
          "indexed": false,
          "internalType": "uint256",
          "name": "newQuorumNumerator",
          "type": "uint256"
        }
      ],
      "name": "QuorumNumeratorUpdated",
      "type": "event"
    },
    {
      "anonymous": false,
      "inputs": [
        {
          "indexed": true,
          "internalType": "address",
          "name": "voter",
          "type": "address"
        },
        {
          "indexed": false,
          "internalType": "uint256",
          "name": "proposalId",
          "type": "uint256"
        },
        {
          "indexed": false,
          "internalType": "uint8",
          "name": "support",
          "type": "uint8"
        },
        {
          "indexed": false,
          "internalType": "uint256",
          "name": "weight",
          "type": "uint256"
        },
        {
          "indexed": false,
          "internalType": "string",
          "name": "reason",
          "type": "string"
        }
      ],
      "name": "VoteCast",
      "type": "event"
    },
    {
      "anonymous": false,
      "inputs": [
        {
          "indexed": true,
          "internalType": "address",
          "name": "voter",
          "type": "address"
        },
        {
          "indexed": false,
          "internalType": "uint256",
          "name": "proposalId",
          "type": "uint256"
        },
        {
          "indexed": false,
          "internalType": "uint8",
          "name": "support",
          "type": "uint8"
        },
        {
          "indexed": false,
          "internalType": "uint256",
          "name": "weight",
          "type": "uint256"
        },
        {
          "indexed": false,
          "internalType": "string",
          "name": "reason",
          "type": "string"
        },
        {
          "indexed": false,
          "internalType": "bytes",
          "name": "params",
          "type": "bytes"
        }
      ],
      "name": "VoteCastWithParams",
      "type": "event"
    },
    {
      "anonymous": false,
      "inputs": [
        {
          "indexed": false,
          "internalType": "uint256",
          "name": "oldVotingDelay",
          "type": "uint256"
        },
        {
          "indexed": false,
          "internalType": "uint256",
          "name": "newVotingDelay",
          "type": "uint256"
        }
      ],
      "name": "VotingDelaySet",
      "type": "event"
    },
    {
      "anonymous": false,
      "inputs": [
        {
          "indexed": false,
          "internalType": "uint256",
          "name": "oldVotingPeriod",
          "type": "uint256"
        },
        {
          "indexed": false,
          "internalType": "uint256",
          "name": "newVotingPeriod",
          "type": "uint256"
        }
      ],
      "name": "VotingPeriodSet",
      "type": "event"
    },
    {
      "inputs": [],
      "name": "BALLOT_TYPEHASH",
      "outputs": [
        {
          "internalType": "bytes32",
          "name": "",
          "type": "bytes32"
        }
      ],
      "stateMutability": "view",
      "type": "function"
    },
    {
      "inputs": [],
      "name": "COUNTING_MODE",
      "outputs": [
        {
          "internalType": "string",
          "name": "",
          "type": "string"
        }
      ],
      "stateMutability": "pure",
      "type": "function"
    },
    {
      "inputs": [],
      "name": "EXTENDED_BALLOT_TYPEHASH",
      "outputs": [
        {
          "internalType": "bytes32",
          "name": "",
          "type": "bytes32"
        }
      ],
      "stateMutability": "view",
      "type": "function"
    },
    {
      "inputs": [
        {
          "internalType": "uint256",
          "name": "proposalId",
          "type": "uint256"
        },
        {
          "internalType": "uint8",
          "name": "support",
          "type": "uint8"
        }
      ],
      "name": "castVote",
      "outputs": [
        {
          "internalType": "uint256",
          "name": "",
          "type": "uint256"
        }
      ],
      "stateMutability": "nonpayable",
      "type": "function"
    },
    {
      "inputs": [
        {
          "internalType": "uint256",
          "name": "proposalId",
          "type": "uint256"
        },
        {
          "internalType": "uint8",
          "name": "support",
          "type": "uint8"
        },
        {
          "internalType": "uint8",
          "name": "v",
          "type": "uint8"
        },
        {
          "internalType": "bytes32",
          "name": "r",
          "type": "bytes32"
        },
        {
          "internalType": "bytes32",
          "name": "s",
          "type": "bytes32"
        }
      ],
      "name": "castVoteBySig",
      "outputs": [
        {
          "internalType": "uint256",
          "name": "",
          "type": "uint256"
        }
      ],
      "stateMutability": "nonpayable",
      "type": "function"
    },
    {
      "inputs": [
        {
          "internalType": "uint256",
          "name": "proposalId",
          "type": "uint256"
        },
        {
          "internalType": "uint8",
          "name": "support",
          "type": "uint8"
        },
        {
          "internalType": "string",
          "name": "reason",
          "type": "string"
        }
      ],
      "name": "castVoteWithReason",
      "outputs": [
        {
          "internalType": "uint256",
          "name": "",
          "type": "uint256"
        }
      ],
      "stateMutability": "nonpayable",
      "type": "function"
    },
    {
      "inputs": [
        {
          "internalType": "uint256",
          "name": "proposalId",
          "type": "uint256"
        },
        {
          "internalType": "uint8",
          "name": "support",
          "type": "uint8"
        },
        {
          "internalType": "string",
          "name": "reason",
          "type": "string"
        },
        {
          "internalType": "bytes",
          "name": "params",
          "type": "bytes"
        }
      ],
      "name": "castVoteWithReasonAndParams",
      "outputs": [
        {
          "internalType": "uint256",
          "name": "",
          "type": "uint256"
        }
      ],
      "stateMutability": "nonpayable",
      "type": "function"
    },
    {
      "inputs": [
        {
          "internalType": "uint256",
          "name": "proposalId",
          "type": "uint256"
        },
        {
          "internalType": "uint8",
          "name": "support",
          "type": "uint8"
        },
        {
          "internalType": "string",
          "name": "reason",
          "type": "string"
        },
        {
          "internalType": "bytes",
          "name": "params",
          "type": "bytes"
        },
        {
          "internalType": "uint8",
          "name": "v",
          "type": "uint8"
        },
        {
          "internalType": "bytes32",
          "name": "r",
          "type": "bytes32"
        },
        {
          "internalType": "bytes32",
          "name": "s",
          "type": "bytes32"
        }
      ],
      "name": "castVoteWithReasonAndParamsBySig",
      "outputs": [
        {
          "internalType": "uint256",
          "name": "",
          "type": "uint256"
        }
      ],
      "stateMutability": "nonpayable",
      "type": "function"
    },
    {
      "inputs": [
        {
          "internalType": "address[]",
          "name": "targets",
          "type": "address[]"
        },
        {
          "internalType": "uint256[]",
          "name": "values",
          "type": "uint256[]"
        },
        {
          "internalType": "bytes[]",
          "name": "calldatas",
          "type": "bytes[]"
        },
        {
          "internalType": "bytes32",
          "name": "descriptionHash",
          "type": "bytes32"
        }
      ],
      "name": "execute",
      "outputs": [
        {
          "internalType": "uint256",
          "name": "",
          "type": "uint256"
        }
      ],
      "stateMutability": "payable",
      "type": "function"
    },
    {
      "inputs": [
        {
          "internalType": "address",
          "name": "account",
          "type": "address"
        },
        {
          "internalType": "uint256",
          "name": "blockNumber",
          "type": "uint256"
        }
      ],
      "name": "getVotes",
      "outputs": [
        {
          "internalType": "uint256",
          "name": "",
          "type": "uint256"
        }
      ],
      "stateMutability": "view",
      "type": "function"
    },
    {
      "inputs": [
        {
          "internalType": "address",
          "name": "account",
          "type": "address"
        },
        {
          "internalType": "uint256",
          "name": "blockNumber",
          "type": "uint256"
        },
        {
          "internalType": "bytes",
          "name": "params",
          "type": "bytes"
        }
      ],
      "name": "getVotesWithParams",
      "outputs": [
        {
          "internalType": "uint256",
          "name": "",
          "type": "uint256"
        }
      ],
      "stateMutability": "view",
      "type": "function"
    },
    {
      "inputs": [
        {
          "internalType": "uint256",
          "name": "proposalId",
          "type": "uint256"
        },
        {
          "internalType": "address",
          "name": "account",
          "type": "address"
        }
      ],
      "name": "hasVoted",
      "outputs": [
        {
          "internalType": "bool",
          "name": "",
          "type": "bool"
        }
      ],
      "stateMutability": "view",
      "type": "function"
    },
    {
      "inputs": [
        {
          "internalType": "address[]",
          "name": "targets",
          "type": "address[]"
        },
        {
          "internalType": "uint256[]",
          "name": "values",
          "type": "uint256[]"
        },
        {
          "internalType": "bytes[]",
          "name": "calldatas",
          "type": "bytes[]"
        },
        {
          "internalType": "bytes32",
          "name": "descriptionHash",
          "type": "bytes32"
        }
      ],
      "name": "hashProposal",
      "outputs": [
        {
          "internalType": "uint256",
          "name": "",
          "type": "uint256"
        }
      ],
      "stateMutability": "pure",
      "type": "function"
    },
    {
      "inputs": [
        {
          "internalType": "contract IVotesUpgradeable",
          "name": "_token",
          "type": "address"
        }
      ],
      "name": "initialize",
      "outputs": [],
      "stateMutability": "nonpayable",
      "type": "function"
    },
    {
      "inputs": [],
      "name": "name",
      "outputs": [
        {
          "internalType": "string",
          "name": "",
          "type": "string"
        }
      ],
      "stateMutability": "view",
      "type": "function"
    },
    {
      "inputs": [
        {
          "internalType": "address",
          "name": "",
          "type": "address"
        },
        {
          "internalType": "address",
          "name": "",
          "type": "address"
        },
        {
          "internalType": "uint256[]",
          "name": "",
          "type": "uint256[]"
        },
        {
          "internalType": "uint256[]",
          "name": "",
          "type": "uint256[]"
        },
        {
          "internalType": "bytes",
          "name": "",
          "type": "bytes"
        }
      ],
      "name": "onERC1155BatchReceived",
      "outputs": [
        {
          "internalType": "bytes4",
          "name": "",
          "type": "bytes4"
        }
      ],
      "stateMutability": "nonpayable",
      "type": "function"
    },
    {
      "inputs": [
        {
          "internalType": "address",
          "name": "",
          "type": "address"
        },
        {
          "internalType": "address",
          "name": "",
          "type": "address"
        },
        {
          "internalType": "uint256",
          "name": "",
          "type": "uint256"
        },
        {
          "internalType": "uint256",
          "name": "",
          "type": "uint256"
        },
        {
          "internalType": "bytes",
          "name": "",
          "type": "bytes"
        }
      ],
      "name": "onERC1155Received",
      "outputs": [
        {
          "internalType": "bytes4",
          "name": "",
          "type": "bytes4"
        }
      ],
      "stateMutability": "nonpayable",
      "type": "function"
    },
    {
      "inputs": [
        {
          "internalType": "address",
          "name": "",
          "type": "address"
        },
        {
          "internalType": "address",
          "name": "",
          "type": "address"
        },
        {
          "internalType": "uint256",
          "name": "",
          "type": "uint256"
        },
        {
          "internalType": "bytes",
          "name": "",
          "type": "bytes"
        }
      ],
      "name": "onERC721Received",
      "outputs": [
        {
          "internalType": "bytes4",
          "name": "",
          "type": "bytes4"
        }
      ],
      "stateMutability": "nonpayable",
      "type": "function"
    },
    {
      "inputs": [
        {
          "internalType": "uint256",
          "name": "proposalId",
          "type": "uint256"
        }
      ],
      "name": "proposalDeadline",
      "outputs": [
        {
          "internalType": "uint256",
          "name": "",
          "type": "uint256"
        }
      ],
      "stateMutability": "view",
      "type": "function"
    },
    {
      "inputs": [
        {
          "internalType": "uint256",
          "name": "proposalId",
          "type": "uint256"
        }
      ],
      "name": "proposalSnapshot",
      "outputs": [
        {
          "internalType": "uint256",
          "name": "",
          "type": "uint256"
        }
      ],
      "stateMutability": "view",
      "type": "function"
    },
    {
      "inputs": [],
      "name": "proposalThreshold",
      "outputs": [
        {
          "internalType": "uint256",
          "name": "",
          "type": "uint256"
        }
      ],
      "stateMutability": "view",
      "type": "function"
    },
    {
      "inputs": [
        {
          "internalType": "uint256",
          "name": "proposalId",
          "type": "uint256"
        }
      ],
      "name": "proposalVotes",
      "outputs": [
        {
          "internalType": "uint256",
          "name": "againstVotes",
          "type": "uint256"
        },
        {
          "internalType": "uint256",
          "name": "forVotes",
          "type": "uint256"
        },
        {
          "internalType": "uint256",
          "name": "abstainVotes",
          "type": "uint256"
        }
      ],
      "stateMutability": "view",
      "type": "function"
    },
    {
      "inputs": [
        {
          "internalType": "address[]",
          "name": "targets",
          "type": "address[]"
        },
        {
          "internalType": "uint256[]",
          "name": "values",
          "type": "uint256[]"
        },
        {
          "internalType": "bytes[]",
          "name": "calldatas",
          "type": "bytes[]"
        },
        {
          "internalType": "string",
          "name": "description",
          "type": "string"
        }
      ],
      "name": "propose",
      "outputs": [
        {
          "internalType": "uint256",
          "name": "",
          "type": "uint256"
        }
      ],
      "stateMutability": "nonpayable",
      "type": "function"
    },
    {
      "inputs": [
        {
          "internalType": "uint256",
          "name": "blockNumber",
          "type": "uint256"
        }
      ],
      "name": "quorum",
      "outputs": [
        {
          "internalType": "uint256",
          "name": "",
          "type": "uint256"
        }
      ],
      "stateMutability": "view",
      "type": "function"
    },
    {
      "inputs": [],
      "name": "quorumDenominator",
      "outputs": [
        {
          "internalType": "uint256",
          "name": "",
          "type": "uint256"
        }
      ],
      "stateMutability": "view",
      "type": "function"
    },
    {
      "inputs": [
        {
          "internalType": "uint256",
          "name": "blockNumber",
          "type": "uint256"
        }
      ],
      "name": "quorumNumerator",
      "outputs": [
        {
          "internalType": "uint256",
          "name": "",
          "type": "uint256"
        }
      ],
      "stateMutability": "view",
      "type": "function"
    },
    {
      "inputs": [],
      "name": "quorumNumerator",
      "outputs": [
        {
          "internalType": "uint256",
          "name": "",
          "type": "uint256"
        }
      ],
      "stateMutability": "view",
      "type": "function"
    },
    {
      "inputs": [
        {
          "internalType": "address",
          "name": "target",
          "type": "address"
        },
        {
          "internalType": "uint256",
          "name": "value",
          "type": "uint256"
        },
        {
          "internalType": "bytes",
          "name": "data",
          "type": "bytes"
        }
      ],
      "name": "relay",
      "outputs": [],
      "stateMutability": "nonpayable",
      "type": "function"
    },
    {
      "inputs": [
        {
          "internalType": "uint256",
          "name": "newProposalThreshold",
          "type": "uint256"
        }
      ],
      "name": "setProposalThreshold",
      "outputs": [],
      "stateMutability": "nonpayable",
      "type": "function"
    },
    {
      "inputs": [
        {
          "internalType": "uint256",
          "name": "newVotingDelay",
          "type": "uint256"
        }
      ],
      "name": "setVotingDelay",
      "outputs": [],
      "stateMutability": "nonpayable",
      "type": "function"
    },
    {
      "inputs": [
        {
          "internalType": "uint256",
          "name": "newVotingPeriod",
          "type": "uint256"
        }
      ],
      "name": "setVotingPeriod",
      "outputs": [],
      "stateMutability": "nonpayable",
      "type": "function"
    },
    {
      "inputs": [
        {
          "internalType": "uint256",
          "name": "proposalId",
          "type": "uint256"
        }
      ],
      "name": "state",
      "outputs": [
        {
          "internalType": "enum IGovernorUpgradeable.ProposalState",
          "name": "",
          "type": "uint8"
        }
      ],
      "stateMutability": "view",
      "type": "function"
    },
    {
      "inputs": [
        {
          "internalType": "bytes4",
          "name": "interfaceId",
          "type": "bytes4"
        }
      ],
      "name": "supportsInterface",
      "outputs": [
        {
          "internalType": "bool",
          "name": "",
          "type": "bool"
        }
      ],
      "stateMutability": "view",
      "type": "function"
    },
    {
      "inputs": [],
      "name": "token",
      "outputs": [
        {
          "internalType": "contract IVotesUpgradeable",
          "name": "",
          "type": "address"
        }
      ],
      "stateMutability": "view",
      "type": "function"
    },
    {
      "inputs": [
        {
          "internalType": "uint256",
          "name": "newQuorumNumerator",
          "type": "uint256"
        }
      ],
      "name": "updateQuorumNumerator",
      "outputs": [],
      "stateMutability": "nonpayable",
      "type": "function"
    },
    {
      "inputs": [],
      "name": "version",
      "outputs": [
        {
          "internalType": "string",
          "name": "",
          "type": "string"
        }
      ],
      "stateMutability": "view",
      "type": "function"
    },
    {
      "inputs": [],
      "name": "votingDelay",
      "outputs": [
        {
          "internalType": "uint256",
          "name": "",
          "type": "uint256"
        }
      ],
      "stateMutability": "view",
      "type": "function"
    },
    {
      "inputs": [],
      "name": "votingPeriod",
      "outputs": [
        {
          "internalType": "uint256",
          "name": "",
          "type": "uint256"
        }
      ],
      "stateMutability": "view",
      "type": "function"
    },
    {
      "stateMutability": "payable",
      "type": "receive"
    }
  ],
  "bytecode": "0x60806040523480156200001157600080fd5b506200001c62000022565b620000e4565b600054610100900460ff16156200008f5760405162461bcd60e51b815260206004820152602760248201527f496e697469616c697a61626c653a20636f6e747261637420697320696e697469604482015266616c697a696e6760c81b606482015260840160405180910390fd5b60005460ff9081161015620000e2576000805460ff191660ff9081179091556040519081527f7f26b83ff96e1f2b6a682f133852f6798a09c465da95921460cefb38474024989060200160405180910390a15b565b61383c80620000f46000396000f3fe6080604052600436106102295760003560e01c80637b3c71d311610123578063c4d66de8116100ab578063eb9019d41161006f578063eb9019d41461072d578063ece40cc11461074d578063f23a6e611461076d578063f8ce560a14610799578063fc0c546a146107b957600080fd5b8063c4d66de814610653578063c59057e414610673578063dd4e2ba514610693578063deaaa7cc146106d9578063ea0217cf1461070d57600080fd5b8063a7713a70116100f2578063a7713a70146105bd578063b58131b0146105d2578063bc197c81146105e7578063c01f9e3714610613578063c28bc2fa1461063357600080fd5b80637b3c71d3146105495780637d5e81e21461056957806397c3d334146105895780639a802a6d1461059d57600080fd5b80633932abb1116101b157806354fd4d501161017557806354fd4d501461049f57806356781388146104c95780635f398a14146104e957806360c4247f1461050957806370b0f6601461052957600080fd5b80633932abb11461039c5780633bccf4fd146103b15780633e4f49e6146103d157806343859632146103fe578063544ffc9c1461044957600080fd5b806306fdde03116101f857806306fdde03146102cf578063150b7a02146102f15780632656227d146103355780632d63f693146103485780632fe3e2611461036857600080fd5b806301ffc9a71461023757806302a251a31461026c578063034201811461028f57806306f3f9e6146102af57600080fd5b3661023257005b005b600080fd5b34801561024357600080fd5b506102576102523660046129dd565b6107f2565b60405190151581526020015b60405180910390f35b34801561027857600080fd5b5061028161085f565b604051908152602001610263565b34801561029b57600080fd5b506102816102aa366004612b1b565b61086f565b3480156102bb57600080fd5b506102306102ca366004612bc1565b610967565b3480156102db57600080fd5b506102e46109b7565b6040516102639190612c36565b3480156102fd57600080fd5b5061031c61030c366004612c5e565b630a85bd0160e11b949350505050565b6040516001600160e01b03199091168152602001610263565b610281610343366004612e3a565b610a49565b34801561035457600080fd5b50610281610363366004612bc1565b610b75565b34801561037457600080fd5b506102817fb3b3f3b703cd84ce352197dcff232b1b5d3cfb2025ce47cf04742d0651f1af8881565b3480156103a857600080fd5b50610281610bac565b3480156103bd57600080fd5b506102816103cc366004612ec9565b610bb7565b3480156103dd57600080fd5b506103f16103ec366004612bc1565b610c2d565b6040516102639190612f2d565b34801561040a57600080fd5b50610257610419366004612f55565b600082815261012f602090815260408083206001600160a01b038516845260030190915290205460ff1692915050565b34801561045557600080fd5b50610484610464366004612bc1565b600090815261012f60205260409020805460018201546002909201549092565b60408051938452602084019290925290820152606001610263565b3480156104ab57600080fd5b506040805180820190915260018152603160f81b60208201526102e4565b3480156104d557600080fd5b506102816104e4366004612f85565b610d3a565b3480156104f557600080fd5b50610281610504366004612fb1565b610d63565b34801561051557600080fd5b50610281610524366004612bc1565b610dad565b34801561053557600080fd5b50610230610544366004612bc1565b610e47565b34801561055557600080fd5b50610281610564366004613034565b610e8b565b34801561057557600080fd5b5061028161058436600461308d565b610edd565b34801561059557600080fd5b506064610281565b3480156105a957600080fd5b506102816105b8366004613141565b6111a0565b3480156105c957600080fd5b506102816111b7565b3480156105de57600080fd5b506102816111d6565b3480156105f357600080fd5b5061031c610602366004613199565b63bc197c8160e01b95945050505050565b34801561061f57600080fd5b5061028161062e366004612bc1565b6111e1565b34801561063f57600080fd5b5061023061064e36600461322c565b611210565b34801561065f57600080fd5b5061023061066e36600461326f565b611294565b34801561067f57600080fd5b5061028161068e366004612e3a565b6113ff565b34801561069f57600080fd5b506040805180820190915260208082527f737570706f72743d627261766f2671756f72756d3d666f722c6162737461696e908201526102e4565b3480156106e557600080fd5b506102817f150214d74d59b7d1e90c73fc22ef3d991dd0a76b046543d4d80ab92d2a50328f81565b34801561071957600080fd5b50610230610728366004612bc1565b611439565b34801561073957600080fd5b5061028161074836600461328c565b61147d565b34801561075957600080fd5b50610230610768366004612bc1565b61149e565b34801561077957600080fd5b5061031c6107883660046132b8565b63f23a6e6160e01b95945050505050565b3480156107a557600080fd5b506102816107b4366004612bc1565b6114e2565b3480156107c557600080fd5b50610161546107da906001600160a01b031681565b6040516001600160a01b039091168152602001610263565b60006001600160e01b0319821663bf26d89760e01b148061082357506001600160e01b031982166379dd796f60e01b145b8061083e57506001600160e01b03198216630271189760e51b145b8061085957506301ffc9a760e01b6001600160e01b03198316145b92915050565b600061086a60fe5490565b905090565b60008061091361090b7fb3b3f3b703cd84ce352197dcff232b1b5d3cfb2025ce47cf04742d0651f1af888c8c8c8c6040516108ab929190613320565b60405180910390208b805190602001206040516020016108f0959493929190948552602085019390935260ff9190911660408401526060830152608082015260a00190565b604051602081830303815290604052805190602001206114ed565b86868661153b565b90506109598a828b8b8b8080601f0160208091040260200160405190810160405280939291908181526020018383808284376000920191909152508d9250611559915050565b9a9950505050505050505050565b33301461098f5760405162461bcd60e51b815260040161098690613330565b60405180910390fd5b6109ab565b8061099f60cd6116ba565b146109a957610994565b505b6109b481611739565b50565b606060cb80546109c690613367565b80601f01602080910402602001604051908101604052809291908181526020018280546109f290613367565b8015610a3f5780601f10610a1457610100808354040283529160200191610a3f565b820191906000526020600020905b815481529060010190602001808311610a2257829003601f168201915b5050505050905090565b600080610a58868686866113ff565b90506000610a6582610c2d565b90506004816007811115610a7b57610a7b612f17565b1480610a9857506005816007811115610a9657610a96612f17565b145b610aee5760405162461bcd60e51b815260206004820152602160248201527f476f7665726e6f723a2070726f706f73616c206e6f74207375636365737366756044820152601b60fa1b6064820152608401610986565b600082815260cc602052604090819020600201805460ff19166001179055517f712ae1383f79ac853f8d882153778e0260ef8f03b504e2866e0593e04d2b291f90610b3c9084815260200190565b60405180910390a1610b518288888888611882565b610b5e828888888861190f565b610b6b8288888888611882565b5095945050505050565b600081815260cc602090815260408083208151928301909152546001600160401b0316908190525b6001600160401b031692915050565b600061086a60fd5490565b604080517f150214d74d59b7d1e90c73fc22ef3d991dd0a76b046543d4d80ab92d2a50328f602082015290810186905260ff851660608201526000908190610c059061090b906080016108f0565b9050610c2287828860405180602001604052806000815250611a0e565b979650505050505050565b600081815260cc60205260408120600281015460ff1615610c515750600792915050565b6002810154610100900460ff1615610c6c5750600292915050565b6000610c7784610b75565b905080610cc65760405162461bcd60e51b815260206004820152601d60248201527f476f7665726e6f723a20756e6b6e6f776e2070726f706f73616c2069640000006044820152606401610986565b438110610cd7575060009392505050565b6000610ce2856111e1565b9050438110610cf657506001949350505050565b610cff85611a3a565b8015610d1f5750600085815261012f602052604090208054600190910154115b15610d2f57506004949350505050565b506003949350505050565b600080339050610d5b84828560405180602001604052806000815250611a0e565b949350505050565b600080339050610c2287828888888080601f0160208091040260200160405190810160405280939291908181526020018383808284376000920191909152508a9250611559915050565b6101955460009080610dc457505061019454919050565b6000610195610dd46001846133b8565b81548110610de457610de46133cf565b60009182526020918290206040805180820190915291015463ffffffff81168083526401000000009091046001600160e01b03169282019290925291508410610e3b57602001516001600160e01b03169392505050565b610d5b61019585611a72565b333014610e665760405162461bcd60e51b815260040161098690613330565b610e82565b80610e7660cd6116ba565b14610e8057610e6b565b505b6109b481611b81565b600080339050610ed386828787878080601f016020809104026020016040519081016040528093929190818152602001838380828437600092019190915250611a0e92505050565b9695505050505050565b6000610ee76111d6565b610ef6336107486001436133b8565b1015610f5e5760405162461bcd60e51b815260206004820152603160248201527f476f7665726e6f723a2070726f706f73657220766f7465732062656c6f7720706044820152701c9bdc1bdcd85b081d1a1c995cda1bdb19607a1b6064820152608401610986565b6000610f7386868686805190602001206113ff565b90508451865114610f965760405162461bcd60e51b8152600401610986906133e5565b8351865114610fb75760405162461bcd60e51b8152600401610986906133e5565b60008651116110085760405162461bcd60e51b815260206004820152601860248201527f476f7665726e6f723a20656d7074792070726f706f73616c00000000000000006044820152606401610986565b600081815260cc6020908152604091829020825191820190925281546001600160401b031690819052156110885760405162461bcd60e51b815260206004820152602160248201527f476f7665726e6f723a2070726f706f73616c20616c72656164792065786973746044820152607360f81b6064820152608401610986565b600061109a611095610bac565b611bc2565b6110a343611bc2565b6110ad9190613426565b905060006110bc61109561085f565b6110c69083613426565b835467ffffffffffffffff19166001600160401b038416178455905060018301805467ffffffffffffffff19166001600160401b0383161790557f7d84a6263ae0d98d3329bd7b46bb4e8d6f98cd35a7adb45c274c8b7fd5ebd5e084338b8b8d516001600160401b0381111561113e5761113e612a5e565b60405190808252806020026020018201604052801561117157816020015b606081526020019060019003908161115c5790505b508c88888e60405161118b9998979695949392919061351a565b60405180910390a15091979650505050505050565b60006111ad848484611c2e565b90505b9392505050565b61019554600090156111ce5761086a610195611cb4565b506101945490565b600061086a60ff5490565b600081815260cc602090815260408083208151928301909152600101546001600160401b031690819052610b9d565b33301461122f5760405162461bcd60e51b815260040161098690613330565b61124b565b8061123f60cd6116ba565b1461124957611234565b505b61128d8483838080601f016020809104026020016040519081016040528093929190818152602001838380828437600092019190915250889250611d10915050565b5050505050565b600054610100900460ff16158080156112b45750600054600160ff909116105b806112ce5750303b1580156112ce575060005460ff166001145b6113315760405162461bcd60e51b815260206004820152602e60248201527f496e697469616c697a61626c653a20636f6e747261637420697320616c72656160448201526d191e481a5b9a5d1a585b1a5e995960921b6064820152608401610986565b6000805460ff191660011790558015611354576000805461ff0019166101001790555b6113816040518060400160405280600c81526020016b22b2b3b3a3b7bb32b93737b960a11b815250611d36565b611399600161b2fa69152d02c7e14af6800000611d8d565b6113a1611dc4565b6113aa82611ded565b6113b46004611e1d565b80156113fb576000805461ff0019169055604051600181527f7f26b83ff96e1f2b6a682f133852f6798a09c465da95921460cefb3847402498906020015b60405180910390a15b5050565b6000848484846040516020016114189493929190613609565b60408051601f19818403018152919052805160209091012095945050505050565b3330146114585760405162461bcd60e51b815260040161098690613330565b611474565b8061146860cd6116ba565b146114725761145d565b505b6109b481611e4d565b60006111b0838361149960408051602081019091526000815290565b611c2e565b3330146114bd5760405162461bcd60e51b815260040161098690613330565b6114d9565b806114cd60cd6116ba565b146114d7576114c2565b505b6109b481611eee565b600061085982611f2f565b60006108596114fa611fcd565b8360405161190160f01b6020820152602281018390526042810182905260009060620160405160208183030381529060405280519060200120905092915050565b600080600061154c87878787612048565b91509150610b6b81612135565b600085815260cc60205260408120600161157288610c2d565b600781111561158357611583612f17565b146115dc5760405162461bcd60e51b815260206004820152602360248201527f476f7665726e6f723a20766f7465206e6f742063757272656e746c792061637460448201526269766560e81b6064820152608401610986565b604080516020810190915281546001600160401b03169081905260009061160590889086611c2e565b905061161488888884886122f0565b835161166657866001600160a01b03167fb8e138887d0aa13bab447e82de9d5c1777041ecd21ca36ba824ff1e6c07ddda4898884896040516116599493929190613654565b60405180910390a2610c22565b866001600160a01b03167fe2babfbac5889a709b63bb7f598b324e08bc5a4fb9ec647fb3cbc9ec07eb871289888489896040516116a795949392919061367c565b60405180910390a2979650505050505050565b60006116d58254600f81810b600160801b909204900b131590565b156116f357604051631ed9509560e11b815260040160405180910390fd5b508054600f0b6000818152600180840160205260408220805492905583546fffffffffffffffffffffffffffffffff191692016001600160801b03169190911790915590565b60648111156117bc5760405162461bcd60e51b815260206004820152604360248201527f476f7665726e6f72566f74657351756f72756d4672616374696f6e3a2071756f60448201527f72756d4e756d657261746f72206f7665722071756f72756d44656e6f6d696e616064820152623a37b960e91b608482015260a401610986565b60006117c66111b7565b905080158015906117d8575061019554155b1561183e57604080518082019091526000815261019590602081016117fc84612470565b6001600160e01b0390811690915282546001810184556000938452602093849020835194909301519091166401000000000263ffffffff909316929092179101555b61184a610195836124d9565b505060408051828152602081018490527f0553476bf02ef2726e8ce5ced78d63e26e602e4a2257b1f559418e24b463399791016113f2565b61128d565b845181101561190757306001600160a01b03168582815181106118ac576118ac6133cf565b60200260200101516001600160a01b031614156118f7576118f78382815181106118d8576118d86133cf565b60200260200101518051906020012060cd61260490919063ffffffff16565b611900816136c2565b9050611887565b505050505050565b60006040518060600160405280602781526020016137b760279139905060005b8551811015611a055760008087838151811061194d5761194d6133cf565b60200260200101516001600160a01b0316878481518110611970576119706133cf565b602002602001015187858151811061198a5761198a6133cf565b602002602001015160405161199f91906136dd565b60006040518083038185875af1925050503d80600081146119dc576040519150601f19603f3d011682016040523d82523d6000602084013e6119e1565b606091505b50915091506119f1828286612640565b505050806119fe906136c2565b905061192f565b50505050505050565b6000611a3185858585611a2c60408051602081019091526000815290565b611559565b95945050505050565b600081815261012f6020526040812060028101546001820154611a5d91906136f9565b611a696107b485610b75565b11159392505050565b6000438210611ac35760405162461bcd60e51b815260206004820181905260248201527f436865636b706f696e74733a20626c6f636b206e6f7420796574206d696e65646044820152606401610986565b825460005b81811015611b28576000611adc8284612679565b905084866000018281548110611af457611af46133cf565b60009182526020909120015463ffffffff161115611b1457809250611b22565b611b1f8160016136f9565b91505b50611ac8565b8115611b6c5784611b3a6001846133b8565b81548110611b4a57611b4a6133cf565b60009182526020909120015464010000000090046001600160e01b0316611b6f565b60005b6001600160e01b031695945050505050565b60fd5460408051918252602082018390527fc565b045403dc03c2eea82b81a0465edad9e2e7fc4d97e11421c209da93d7a93910160405180910390a160fd55565b60006001600160401b03821115611c2a5760405162461bcd60e51b815260206004820152602660248201527f53616665436173743a2076616c756520646f65736e27742066697420696e203660448201526534206269747360d01b6064820152608401610986565b5090565b61016154604051630748d63560e31b81526001600160a01b038581166004830152602482018590526000921690633a46b1a89060440160206040518083038186803b158015611c7c57600080fd5b505afa158015611c90573d6000803e3d6000fd5b505050506040513d601f19601f820116820180604052508101906111ad9190613711565b80546000908015611cfd5782611ccb6001836133b8565b81548110611cdb57611cdb6133cf565b60009182526020909120015464010000000090046001600160e01b0316611d00565b60005b6001600160e01b03169392505050565b60606111ad8484846040518060600160405280602981526020016137de60299139612694565b600054610100900460ff16611d5d5760405162461bcd60e51b81526004016109869061372a565b611d8481611d7f6040805180820190915260018152603160f81b602082015290565b6127ba565b6109b4816127fb565b600054610100900460ff16611db45760405162461bcd60e51b81526004016109869061372a565b611dbf838383612835565b505050565b600054610100900460ff16611deb5760405162461bcd60e51b81526004016109869061372a565b565b600054610100900460ff16611e145760405162461bcd60e51b81526004016109869061372a565b6109b481612877565b600054610100900460ff16611e445760405162461bcd60e51b81526004016109869061372a565b6109b4816128c1565b60008111611ead5760405162461bcd60e51b815260206004820152602760248201527f476f7665726e6f7253657474696e67733a20766f74696e6720706572696f6420604482015266746f6f206c6f7760c81b6064820152608401610986565b60fe5460408051918252602082018390527f7e3f7f0708a84de9203036abaa450dccc85ad5ff52f78c170f3edb55cf5e8828910160405180910390a160fe55565b60ff5460408051918252602082018390527fccb45da8d5717e6c4544694297c4ba5cf151d455c9bb0ed4fc7a38411bc05461910160405180910390a160ff55565b60006064611f3c83610dad565b61016154604051632394e7a360e21b8152600481018690526001600160a01b0390911690638e539e8c9060240160206040518083038186803b158015611f8157600080fd5b505afa158015611f95573d6000803e3d6000fd5b505050506040513d601f19601f82011682018060405250810190611fb99190613711565b611fc39190613775565b6108599190613794565b600061086a7f8b73c3c69bb8fe3d512ecc4cf759cc79239f7b179b0ffacaa9a75d522b39400f611ffc60655490565b6066546040805160208101859052908101839052606081018290524660808201523060a082015260009060c0016040516020818303038152906040528051906020012090509392505050565b6000807f7fffffffffffffffffffffffffffffff5d576e7357a4501ddfe92f46681b20a083111561207f575060009050600361212c565b8460ff16601b1415801561209757508460ff16601c14155b156120a8575060009050600461212c565b6040805160008082526020820180845289905260ff881692820192909252606081018690526080810185905260019060a0016020604051602081039080840390855afa1580156120fc573d6000803e3d6000fd5b5050604051601f1901519150506001600160a01b0381166121255760006001925092505061212c565b9150600090505b94509492505050565b600081600481111561214957612149612f17565b14156121525750565b600181600481111561216657612166612f17565b14156121b45760405162461bcd60e51b815260206004820152601860248201527f45434453413a20696e76616c6964207369676e617475726500000000000000006044820152606401610986565b60028160048111156121c8576121c8612f17565b14156122165760405162461bcd60e51b815260206004820152601f60248201527f45434453413a20696e76616c6964207369676e6174757265206c656e677468006044820152606401610986565b600381600481111561222a5761222a612f17565b14156122835760405162461bcd60e51b815260206004820152602260248201527f45434453413a20696e76616c6964207369676e6174757265202773272076616c604482015261756560f01b6064820152608401610986565b600481600481111561229757612297612f17565b14156109b45760405162461bcd60e51b815260206004820152602260248201527f45434453413a20696e76616c6964207369676e6174757265202776272076616c604482015261756560f01b6064820152608401610986565b600085815261012f602090815260408083206001600160a01b0388168452600381019092529091205460ff16156123795760405162461bcd60e51b815260206004820152602760248201527f476f7665726e6f72566f74696e6753696d706c653a20766f746520616c726561604482015266191e4818d85cdd60ca1b6064820152608401610986565b6001600160a01b03851660009081526003820160205260408120805460ff1916600117905560ff168460ff1614156123ca57828160000160008282546123bf91906136f9565b909155506119079050565b60ff8416600114156123ea57828160010160008282546123bf91906136f9565b60ff84166002141561240a57828160020160008282546123bf91906136f9565b60405162461bcd60e51b815260206004820152603560248201527f476f7665726e6f72566f74696e6753696d706c653a20696e76616c69642076616044820152746c756520666f7220656e756d20566f74655479706560581b6064820152608401610986565b60006001600160e01b03821115611c2a5760405162461bcd60e51b815260206004820152602760248201527f53616665436173743a2076616c756520646f65736e27742066697420696e20326044820152663234206269747360c81b6064820152608401610986565b81546000908190816124ea86611cb4565b9050600082118015612528575043866125046001856133b8565b81548110612514576125146133cf565b60009182526020909120015463ffffffff16145b156125885761253685612470565b866125426001856133b8565b81548110612552576125526133cf565b9060005260206000200160000160046101000a8154816001600160e01b0302191690836001600160e01b031602179055506125f6565b8560000160405180604001604052806125a0436128e8565b63ffffffff1681526020016125b488612470565b6001600160e01b0390811690915282546001810184556000938452602093849020835194909301519091166401000000000263ffffffff909316929092179101555b9250839150505b9250929050565b8154600160801b90819004600f0b6000818152600180860160205260409091209390935583546001600160801b03908116939091011602179055565b6060831561264f5750816111b0565b82511561265f5782518084602001fd5b8160405162461bcd60e51b81526004016109869190612c36565b60006126886002848418613794565b6111b0908484166136f9565b6060824710156126f55760405162461bcd60e51b815260206004820152602660248201527f416464726573733a20696e73756666696369656e742062616c616e636520666f6044820152651c8818d85b1b60d21b6064820152608401610986565b6001600160a01b0385163b61274c5760405162461bcd60e51b815260206004820152601d60248201527f416464726573733a2063616c6c20746f206e6f6e2d636f6e74726163740000006044820152606401610986565b600080866001600160a01b0316858760405161276891906136dd565b60006040518083038185875af1925050503d80600081146127a5576040519150601f19603f3d011682016040523d82523d6000602084013e6127aa565b606091505b5091509150610c22828286612640565b600054610100900460ff166127e15760405162461bcd60e51b81526004016109869061372a565b815160209283012081519190920120606591909155606655565b600054610100900460ff166128225760405162461bcd60e51b81526004016109869061372a565b80516113fb9060cb90602084019061294d565b600054610100900460ff1661285c5760405162461bcd60e51b81526004016109869061372a565b61286583611b81565b61286e82611e4d565b611dbf81611eee565b600054610100900460ff1661289e5760405162461bcd60e51b81526004016109869061372a565b61016180546001600160a01b0319166001600160a01b0392909216919091179055565b600054610100900460ff166109ab5760405162461bcd60e51b81526004016109869061372a565b600063ffffffff821115611c2a5760405162461bcd60e51b815260206004820152602660248201527f53616665436173743a2076616c756520646f65736e27742066697420696e203360448201526532206269747360d01b6064820152608401610986565b82805461295990613367565b90600052602060002090601f01602090048101928261297b57600085556129c1565b82601f1061299457805160ff19168380011785556129c1565b828001600101855582156129c1579182015b828111156129c15782518255916020019190600101906129a6565b50611c2a9291505b80821115611c2a57600081556001016129c9565b6000602082840312156129ef57600080fd5b81356001600160e01b0319811681146111b057600080fd5b803560ff81168114612a1857600080fd5b919050565b60008083601f840112612a2f57600080fd5b5081356001600160401b03811115612a4657600080fd5b6020830191508360208285010111156125fd57600080fd5b634e487b7160e01b600052604160045260246000fd5b604051601f8201601f191681016001600160401b0381118282101715612a9c57612a9c612a5e565b604052919050565b60006001600160401b03831115612abd57612abd612a5e565b612ad0601f8401601f1916602001612a74565b9050828152838383011115612ae457600080fd5b828260208301376000602084830101529392505050565b600082601f830112612b0c57600080fd5b6111b083833560208501612aa4565b60008060008060008060008060e0898b031215612b3757600080fd5b88359750612b4760208a01612a07565b965060408901356001600160401b0380821115612b6357600080fd5b612b6f8c838d01612a1d565b909850965060608b0135915080821115612b8857600080fd5b50612b958b828c01612afb565b945050612ba460808a01612a07565b925060a0890135915060c089013590509295985092959890939650565b600060208284031215612bd357600080fd5b5035919050565b60005b83811015612bf5578181015183820152602001612bdd565b83811115612c04576000848401525b50505050565b60008151808452612c22816020860160208601612bda565b601f01601f19169290920160200192915050565b6020815260006111b06020830184612c0a565b6001600160a01b03811681146109b457600080fd5b60008060008060808587031215612c7457600080fd5b8435612c7f81612c49565b93506020850135612c8f81612c49565b92506040850135915060608501356001600160401b03811115612cb157600080fd5b612cbd87828801612afb565b91505092959194509250565b60006001600160401b03821115612ce257612ce2612a5e565b5060051b60200190565b600082601f830112612cfd57600080fd5b81356020612d12612d0d83612cc9565b612a74565b82815260059290921b84018101918181019086841115612d3157600080fd5b8286015b84811015612d55578035612d4881612c49565b8352918301918301612d35565b509695505050505050565b600082601f830112612d7157600080fd5b81356020612d81612d0d83612cc9565b82815260059290921b84018101918181019086841115612da057600080fd5b8286015b84811015612d555780358352918301918301612da4565b600082601f830112612dcc57600080fd5b81356020612ddc612d0d83612cc9565b82815260059290921b84018101918181019086841115612dfb57600080fd5b8286015b84811015612d555780356001600160401b03811115612e1e5760008081fd5b612e2c8986838b0101612afb565b845250918301918301612dff565b60008060008060808587031215612e5057600080fd5b84356001600160401b0380821115612e6757600080fd5b612e7388838901612cec565b95506020870135915080821115612e8957600080fd5b612e9588838901612d60565b94506040870135915080821115612eab57600080fd5b50612eb887828801612dbb565b949793965093946060013593505050565b600080600080600060a08688031215612ee157600080fd5b85359450612ef160208701612a07565b9350612eff60408701612a07565b94979396509394606081013594506080013592915050565b634e487b7160e01b600052602160045260246000fd5b6020810160088310612f4f57634e487b7160e01b600052602160045260246000fd5b91905290565b60008060408385031215612f6857600080fd5b823591506020830135612f7a81612c49565b809150509250929050565b60008060408385031215612f9857600080fd5b82359150612fa860208401612a07565b90509250929050565b600080600080600060808688031215612fc957600080fd5b85359450612fd960208701612a07565b935060408601356001600160401b0380821115612ff557600080fd5b61300189838a01612a1d565b9095509350606088013591508082111561301a57600080fd5b5061302788828901612afb565b9150509295509295909350565b6000806000806060858703121561304a57600080fd5b8435935061305a60208601612a07565b925060408501356001600160401b0381111561307557600080fd5b61308187828801612a1d565b95989497509550505050565b600080600080608085870312156130a357600080fd5b84356001600160401b03808211156130ba57600080fd5b6130c688838901612cec565b955060208701359150808211156130dc57600080fd5b6130e888838901612d60565b945060408701359150808211156130fe57600080fd5b61310a88838901612dbb565b9350606087013591508082111561312057600080fd5b508501601f8101871361313257600080fd5b612cbd87823560208401612aa4565b60008060006060848603121561315657600080fd5b833561316181612c49565b92506020840135915060408401356001600160401b0381111561318357600080fd5b61318f86828701612afb565b9150509250925092565b600080600080600060a086880312156131b157600080fd5b85356131bc81612c49565b945060208601356131cc81612c49565b935060408601356001600160401b03808211156131e857600080fd5b6131f489838a01612d60565b9450606088013591508082111561320a57600080fd5b61321689838a01612d60565b9350608088013591508082111561301a57600080fd5b6000806000806060858703121561324257600080fd5b843561324d81612c49565b93506020850135925060408501356001600160401b0381111561307557600080fd5b60006020828403121561328157600080fd5b81356111b081612c49565b6000806040838503121561329f57600080fd5b82356132aa81612c49565b946020939093013593505050565b600080600080600060a086880312156132d057600080fd5b85356132db81612c49565b945060208601356132eb81612c49565b9350604086013592506060860135915060808601356001600160401b0381111561331457600080fd5b61302788828901612afb565b8183823760009101908152919050565b60208082526018908201527f476f7665726e6f723a206f6e6c79476f7665726e616e63650000000000000000604082015260600190565b600181811c9082168061337b57607f821691505b6020821081141561339c57634e487b7160e01b600052602260045260246000fd5b50919050565b634e487b7160e01b600052601160045260246000fd5b6000828210156133ca576133ca6133a2565b500390565b634e487b7160e01b600052603260045260246000fd5b60208082526021908201527f476f7665726e6f723a20696e76616c69642070726f706f73616c206c656e67746040820152600d60fb1b606082015260800190565b60006001600160401b03808316818516808303821115613448576134486133a2565b01949350505050565b600081518084526020808501945080840160005b8381101561348a5781516001600160a01b031687529582019590820190600101613465565b509495945050505050565b600081518084526020808501945080840160005b8381101561348a578151875295820195908201906001016134a9565b600081518084526020808501808196508360051b8101915082860160005b8581101561350d5782840389526134fb848351612c0a565b988501989350908401906001016134e3565b5091979650505050505050565b60006101208b8352602060018060a01b038c16818501528160408501526135438285018c613451565b91508382036060850152613557828b613495565b915083820360808501528189518084528284019150828160051b850101838c0160005b838110156135a857601f19878403018552613596838351612c0a565b9486019492509085019060010161357a565b505086810360a08801526135bc818c6134c5565b9450505050506135d760c08401876001600160401b03169052565b6001600160401b03851660e08401528281036101008401526135f98185612c0a565b9c9b505050505050505050505050565b60808152600061361c6080830187613451565b828103602084015261362e8187613495565b9050828103604084015261364281866134c5565b91505082606083015295945050505050565b84815260ff84166020820152826040820152608060608201526000610ed36080830184612c0a565b85815260ff8516602082015283604082015260a0606082015260006136a460a0830185612c0a565b82810360808401526136b68185612c0a565b98975050505050505050565b60006000198214156136d6576136d66133a2565b5060010190565b600082516136ef818460208701612bda565b9190910192915050565b6000821982111561370c5761370c6133a2565b500190565b60006020828403121561372357600080fd5b5051919050565b6020808252602b908201527f496e697469616c697a61626c653a20636f6e7472616374206973206e6f74206960408201526a6e697469616c697a696e6760a81b606082015260800190565b600081600019048311821515161561378f5761378f6133a2565b500290565b6000826137b157634e487b7160e01b600052601260045260246000fd5b50049056fe476f7665726e6f723a2063616c6c20726576657274656420776974686f7574206d657373616765416464726573733a206c6f772d6c6576656c2063616c6c20776974682076616c7565206661696c6564a26469706673582212206e8c280b2ae12c68c02697b3ce7f1e0d1b6cb085815e8444c1c1659fa78914f464736f6c63430008090033",
  "linkReferences": {},
  "deployedLinkReferences": {}
}