{
    "_format": "hh-sol-artifact-1",
    "contractName": "EeggGovernor",
    "sourceName": "contracts/EeggGovernor.sol",
    "abi": [
        {
            "inputs": [],
            "stateMutability": "nonpayable",
            "type": "constructor"
        },
        {
            "inputs": [],
            "name": "Empty",
            "type": "error"
        },
        {
            "anonymous": false,
            "inputs": [
                {
                    "indexed": false,
                    "internalType": "address",
                    "name": "previousAdmin",
                    "type": "address"
                },
                {
                    "indexed": false,
                    "internalType": "address",
                    "name": "newAdmin",
                    "type": "address"
                }
            ],
            "name": "AdminChanged",
            "type": "event"
        },
        {
            "anonymous": false,
            "inputs": [
                {
                    "indexed": true,
                    "internalType": "address",
                    "name": "beacon",
                    "type": "address"
                }
            ],
            "name": "BeaconUpgraded",
            "type": "event"
        },
        {
            "anonymous": false,
            "inputs": [
                {
                    "indexed": false,
                    "internalType": "uint8",
                    "name": "version",
                    "type": "uint8"
                }
            ],
            "name": "Initialized",
            "type": "event"
        },
        {
            "anonymous": false,
            "inputs": [
                {
                    "indexed": true,
                    "internalType": "address",
                    "name": "previousOwner",
                    "type": "address"
                },
                {
                    "indexed": true,
                    "internalType": "address",
                    "name": "newOwner",
                    "type": "address"
                }
            ],
            "name": "OwnershipTransferred",
            "type": "event"
        },
        {
            "anonymous": false,
            "inputs": [
                {
                    "indexed": false,
                    "internalType": "uint256",
                    "name": "proposalId",
                    "type": "uint256"
                }
            ],
            "name": "ProposalCanceled",
            "type": "event"
        },
        {
            "anonymous": false,
            "inputs": [
                {
                    "indexed": false,
                    "internalType": "uint256",
                    "name": "proposalId",
                    "type": "uint256"
                },
                {
                    "indexed": false,
                    "internalType": "address",
                    "name": "proposer",
                    "type": "address"
                },
                {
                    "indexed": false,
                    "internalType": "address[]",
                    "name": "targets",
                    "type": "address[]"
                },
                {
                    "indexed": false,
                    "internalType": "uint256[]",
                    "name": "values",
                    "type": "uint256[]"
                },
                {
                    "indexed": false,
                    "internalType": "string[]",
                    "name": "signatures",
                    "type": "string[]"
                },
                {
                    "indexed": false,
                    "internalType": "bytes[]",
                    "name": "calldatas",
                    "type": "bytes[]"
                },
                {
                    "indexed": false,
                    "internalType": "uint256",
                    "name": "startBlock",
                    "type": "uint256"
                },
                {
                    "indexed": false,
                    "internalType": "uint256",
                    "name": "endBlock",
                    "type": "uint256"
                },
                {
                    "indexed": false,
                    "internalType": "string",
                    "name": "description",
                    "type": "string"
                }
            ],
            "name": "ProposalCreated",
            "type": "event"
        },
        {
            "anonymous": false,
            "inputs": [
                {
                    "indexed": false,
                    "internalType": "uint256",
                    "name": "proposalId",
                    "type": "uint256"
                }
            ],
            "name": "ProposalExecuted",
            "type": "event"
        },
        {
            "anonymous": false,
            "inputs": [
                {
                    "indexed": false,
                    "internalType": "uint256",
                    "name": "oldProposalThreshold",
                    "type": "uint256"
                },
                {
                    "indexed": false,
                    "internalType": "uint256",
                    "name": "newProposalThreshold",
                    "type": "uint256"
                }
            ],
            "name": "ProposalThresholdSet",
            "type": "event"
        },
        {
            "anonymous": false,
            "inputs": [
                {
                    "indexed": false,
                    "internalType": "uint256",
                    "name": "oldQuorumNumerator",
                    "type": "uint256"
                },
                {
                    "indexed": false,
                    "internalType": "uint256",
                    "name": "newQuorumNumerator",
                    "type": "uint256"
                }
            ],
            "name": "QuorumNumeratorUpdated",
            "type": "event"
        },
        {
            "anonymous": false,
            "inputs": [
                {
                    "indexed": true,
                    "internalType": "address",
                    "name": "implementation",
                    "type": "address"
                }
            ],
            "name": "Upgraded",
            "type": "event"
        },
        {
            "anonymous": false,
            "inputs": [
                {
                    "indexed": true,
                    "internalType": "address",
                    "name": "voter",
                    "type": "address"
                },
                {
                    "indexed": false,
                    "internalType": "uint256",
                    "name": "proposalId",
                    "type": "uint256"
                },
                {
                    "indexed": false,
                    "internalType": "uint8",
                    "name": "support",
                    "type": "uint8"
                },
                {
                    "indexed": false,
                    "internalType": "uint256",
                    "name": "weight",
                    "type": "uint256"
                },
                {
                    "indexed": false,
                    "internalType": "string",
                    "name": "reason",
                    "type": "string"
                }
            ],
            "name": "VoteCast",
            "type": "event"
        },
        {
            "anonymous": false,
            "inputs": [
                {
                    "indexed": true,
                    "internalType": "address",
                    "name": "voter",
                    "type": "address"
                },
                {
                    "indexed": false,
                    "internalType": "uint256",
                    "name": "proposalId",
                    "type": "uint256"
                },
                {
                    "indexed": false,
                    "internalType": "uint8",
                    "name": "support",
                    "type": "uint8"
                },
                {
                    "indexed": false,
                    "internalType": "uint256",
                    "name": "weight",
                    "type": "uint256"
                },
                {
                    "indexed": false,
                    "internalType": "string",
                    "name": "reason",
                    "type": "string"
                },
                {
                    "indexed": false,
                    "internalType": "bytes",
                    "name": "params",
                    "type": "bytes"
                }
            ],
            "name": "VoteCastWithParams",
            "type": "event"
        },
        {
            "anonymous": false,
            "inputs": [
                {
                    "indexed": false,
                    "internalType": "uint256",
                    "name": "oldVotingDelay",
                    "type": "uint256"
                },
                {
                    "indexed": false,
                    "internalType": "uint256",
                    "name": "newVotingDelay",
                    "type": "uint256"
                }
            ],
            "name": "VotingDelaySet",
            "type": "event"
        },
        {
            "anonymous": false,
            "inputs": [
                {
                    "indexed": false,
                    "internalType": "uint256",
                    "name": "oldVotingPeriod",
                    "type": "uint256"
                },
                {
                    "indexed": false,
                    "internalType": "uint256",
                    "name": "newVotingPeriod",
                    "type": "uint256"
                }
            ],
            "name": "VotingPeriodSet",
            "type": "event"
        },
        {
            "inputs": [],
            "name": "BALLOT_TYPEHASH",
            "outputs": [
                {
                    "internalType": "bytes32",
                    "name": "",
                    "type": "bytes32"
                }
            ],
            "stateMutability": "view",
            "type": "function"
        },
        {
            "inputs": [],
            "name": "COUNTING_MODE",
            "outputs": [
                {
                    "internalType": "string",
                    "name": "",
                    "type": "string"
                }
            ],
            "stateMutability": "pure",
            "type": "function"
        },
        {
            "inputs": [],
            "name": "EXTENDED_BALLOT_TYPEHASH",
            "outputs": [
                {
                    "internalType": "bytes32",
                    "name": "",
                    "type": "bytes32"
                }
            ],
            "stateMutability": "view",
            "type": "function"
        },
        {
            "inputs": [
                {
                    "internalType": "uint256",
                    "name": "proposalId",
                    "type": "uint256"
                },
                {
                    "internalType": "uint8",
                    "name": "support",
                    "type": "uint8"
                }
            ],
            "name": "castVote",
            "outputs": [
                {
                    "internalType": "uint256",
                    "name": "",
                    "type": "uint256"
                }
            ],
            "stateMutability": "nonpayable",
            "type": "function"
        },
        {
            "inputs": [
                {
                    "internalType": "uint256",
                    "name": "proposalId",
                    "type": "uint256"
                },
                {
                    "internalType": "uint8",
                    "name": "support",
                    "type": "uint8"
                },
                {
                    "internalType": "uint8",
                    "name": "v",
                    "type": "uint8"
                },
                {
                    "internalType": "bytes32",
                    "name": "r",
                    "type": "bytes32"
                },
                {
                    "internalType": "bytes32",
                    "name": "s",
                    "type": "bytes32"
                }
            ],
            "name": "castVoteBySig",
            "outputs": [
                {
                    "internalType": "uint256",
                    "name": "",
                    "type": "uint256"
                }
            ],
            "stateMutability": "nonpayable",
            "type": "function"
        },
        {
            "inputs": [
                {
                    "internalType": "uint256",
                    "name": "proposalId",
                    "type": "uint256"
                },
                {
                    "internalType": "uint8",
                    "name": "support",
                    "type": "uint8"
                },
                {
                    "internalType": "string",
                    "name": "reason",
                    "type": "string"
                }
            ],
            "name": "castVoteWithReason",
            "outputs": [
                {
                    "internalType": "uint256",
                    "name": "",
                    "type": "uint256"
                }
            ],
            "stateMutability": "nonpayable",
            "type": "function"
        },
        {
            "inputs": [
                {
                    "internalType": "uint256",
                    "name": "proposalId",
                    "type": "uint256"
                },
                {
                    "internalType": "uint8",
                    "name": "support",
                    "type": "uint8"
                },
                {
                    "internalType": "string",
                    "name": "reason",
                    "type": "string"
                },
                {
                    "internalType": "bytes",
                    "name": "params",
                    "type": "bytes"
                }
            ],
            "name": "castVoteWithReasonAndParams",
            "outputs": [
                {
                    "internalType": "uint256",
                    "name": "",
                    "type": "uint256"
                }
            ],
            "stateMutability": "nonpayable",
            "type": "function"
        },
        {
            "inputs": [
                {
                    "internalType": "uint256",
                    "name": "proposalId",
                    "type": "uint256"
                },
                {
                    "internalType": "uint8",
                    "name": "support",
                    "type": "uint8"
                },
                {
                    "internalType": "string",
                    "name": "reason",
                    "type": "string"
                },
                {
                    "internalType": "bytes",
                    "name": "params",
                    "type": "bytes"
                },
                {
                    "internalType": "uint8",
                    "name": "v",
                    "type": "uint8"
                },
                {
                    "internalType": "bytes32",
                    "name": "r",
                    "type": "bytes32"
                },
                {
                    "internalType": "bytes32",
                    "name": "s",
                    "type": "bytes32"
                }
            ],
            "name": "castVoteWithReasonAndParamsBySig",
            "outputs": [
                {
                    "internalType": "uint256",
                    "name": "",
                    "type": "uint256"
                }
            ],
            "stateMutability": "nonpayable",
            "type": "function"
        },
        {
            "inputs": [
                {
                    "internalType": "address[]",
                    "name": "targets",
                    "type": "address[]"
                },
                {
                    "internalType": "uint256[]",
                    "name": "values",
                    "type": "uint256[]"
                },
                {
                    "internalType": "bytes[]",
                    "name": "calldatas",
                    "type": "bytes[]"
                },
                {
                    "internalType": "bytes32",
                    "name": "descriptionHash",
                    "type": "bytes32"
                }
            ],
            "name": "execute",
            "outputs": [
                {
                    "internalType": "uint256",
                    "name": "",
                    "type": "uint256"
                }
            ],
            "stateMutability": "payable",
            "type": "function"
        },
        {
            "inputs": [
                {
                    "internalType": "address",
                    "name": "account",
                    "type": "address"
                },
                {
                    "internalType": "uint256",
                    "name": "blockNumber",
                    "type": "uint256"
                }
            ],
            "name": "getVotes",
            "outputs": [
                {
                    "internalType": "uint256",
                    "name": "",
                    "type": "uint256"
                }
            ],
            "stateMutability": "view",
            "type": "function"
        },
        {
            "inputs": [
                {
                    "internalType": "address",
                    "name": "account",
                    "type": "address"
                },
                {
                    "internalType": "uint256",
                    "name": "blockNumber",
                    "type": "uint256"
                },
                {
                    "internalType": "bytes",
                    "name": "params",
                    "type": "bytes"
                }
            ],
            "name": "getVotesWithParams",
            "outputs": [
                {
                    "internalType": "uint256",
                    "name": "",
                    "type": "uint256"
                }
            ],
            "stateMutability": "view",
            "type": "function"
        },
        {
            "inputs": [
                {
                    "internalType": "uint256",
                    "name": "proposalId",
                    "type": "uint256"
                },
                {
                    "internalType": "address",
                    "name": "account",
                    "type": "address"
                }
            ],
            "name": "hasVoted",
            "outputs": [
                {
                    "internalType": "bool",
                    "name": "",
                    "type": "bool"
                }
            ],
            "stateMutability": "view",
            "type": "function"
        },
        {
            "inputs": [
                {
                    "internalType": "address[]",
                    "name": "targets",
                    "type": "address[]"
                },
                {
                    "internalType": "uint256[]",
                    "name": "values",
                    "type": "uint256[]"
                },
                {
                    "internalType": "bytes[]",
                    "name": "calldatas",
                    "type": "bytes[]"
                },
                {
                    "internalType": "bytes32",
                    "name": "descriptionHash",
                    "type": "bytes32"
                }
            ],
            "name": "hashProposal",
            "outputs": [
                {
                    "internalType": "uint256",
                    "name": "",
                    "type": "uint256"
                }
            ],
            "stateMutability": "pure",
            "type": "function"
        },
        {
            "inputs": [
                {
                    "internalType": "contract IVotesUpgradeable",
                    "name": "_token",
                    "type": "address"
                }
            ],
            "name": "initialize",
            "outputs": [],
            "stateMutability": "nonpayable",
            "type": "function"
        },
        {
            "inputs": [],
            "name": "name",
            "outputs": [
                {
                    "internalType": "string",
                    "name": "",
                    "type": "string"
                }
            ],
            "stateMutability": "view",
            "type": "function"
        },
        {
            "inputs": [
                {
                    "internalType": "address",
                    "name": "",
                    "type": "address"
                },
                {
                    "internalType": "address",
                    "name": "",
                    "type": "address"
                },
                {
                    "internalType": "uint256[]",
                    "name": "",
                    "type": "uint256[]"
                },
                {
                    "internalType": "uint256[]",
                    "name": "",
                    "type": "uint256[]"
                },
                {
                    "internalType": "bytes",
                    "name": "",
                    "type": "bytes"
                }
            ],
            "name": "onERC1155BatchReceived",
            "outputs": [
                {
                    "internalType": "bytes4",
                    "name": "",
                    "type": "bytes4"
                }
            ],
            "stateMutability": "nonpayable",
            "type": "function"
        },
        {
            "inputs": [
                {
                    "internalType": "address",
                    "name": "",
                    "type": "address"
                },
                {
                    "internalType": "address",
                    "name": "",
                    "type": "address"
                },
                {
                    "internalType": "uint256",
                    "name": "",
                    "type": "uint256"
                },
                {
                    "internalType": "uint256",
                    "name": "",
                    "type": "uint256"
                },
                {
                    "internalType": "bytes",
                    "name": "",
                    "type": "bytes"
                }
            ],
            "name": "onERC1155Received",
            "outputs": [
                {
                    "internalType": "bytes4",
                    "name": "",
                    "type": "bytes4"
                }
            ],
            "stateMutability": "nonpayable",
            "type": "function"
        },
        {
            "inputs": [
                {
                    "internalType": "address",
                    "name": "",
                    "type": "address"
                },
                {
                    "internalType": "address",
                    "name": "",
                    "type": "address"
                },
                {
                    "internalType": "uint256",
                    "name": "",
                    "type": "uint256"
                },
                {
                    "internalType": "bytes",
                    "name": "",
                    "type": "bytes"
                }
            ],
            "name": "onERC721Received",
            "outputs": [
                {
                    "internalType": "bytes4",
                    "name": "",
                    "type": "bytes4"
                }
            ],
            "stateMutability": "nonpayable",
            "type": "function"
        },
        {
            "inputs": [],
            "name": "owner",
            "outputs": [
                {
                    "internalType": "address",
                    "name": "",
                    "type": "address"
                }
            ],
            "stateMutability": "view",
            "type": "function"
        },
        {
            "inputs": [
                {
                    "internalType": "uint256",
                    "name": "proposalId",
                    "type": "uint256"
                }
            ],
            "name": "proposalDeadline",
            "outputs": [
                {
                    "internalType": "uint256",
                    "name": "",
                    "type": "uint256"
                }
            ],
            "stateMutability": "view",
            "type": "function"
        },
        {
            "inputs": [
                {
                    "internalType": "uint256",
                    "name": "proposalId",
                    "type": "uint256"
                }
            ],
            "name": "proposalSnapshot",
            "outputs": [
                {
                    "internalType": "uint256",
                    "name": "",
                    "type": "uint256"
                }
            ],
            "stateMutability": "view",
            "type": "function"
        },
        {
            "inputs": [],
            "name": "proposalThreshold",
            "outputs": [
                {
                    "internalType": "uint256",
                    "name": "",
                    "type": "uint256"
                }
            ],
            "stateMutability": "view",
            "type": "function"
        },
        {
            "inputs": [
                {
                    "internalType": "uint256",
                    "name": "proposalId",
                    "type": "uint256"
                }
            ],
            "name": "proposalVotes",
            "outputs": [
                {
                    "internalType": "uint256",
                    "name": "againstVotes",
                    "type": "uint256"
                },
                {
                    "internalType": "uint256",
                    "name": "forVotes",
                    "type": "uint256"
                },
                {
                    "internalType": "uint256",
                    "name": "abstainVotes",
                    "type": "uint256"
                }
            ],
            "stateMutability": "view",
            "type": "function"
        },
        {
            "inputs": [
                {
                    "internalType": "address[]",
                    "name": "targets",
                    "type": "address[]"
                },
                {
                    "internalType": "uint256[]",
                    "name": "values",
                    "type": "uint256[]"
                },
                {
                    "internalType": "bytes[]",
                    "name": "calldatas",
                    "type": "bytes[]"
                },
                {
                    "internalType": "string",
                    "name": "description",
                    "type": "string"
                }
            ],
            "name": "propose",
            "outputs": [
                {
                    "internalType": "uint256",
                    "name": "",
                    "type": "uint256"
                }
            ],
            "stateMutability": "nonpayable",
            "type": "function"
        },
        {
            "inputs": [],
            "name": "proxiableUUID",
            "outputs": [
                {
                    "internalType": "bytes32",
                    "name": "",
                    "type": "bytes32"
                }
            ],
            "stateMutability": "view",
            "type": "function"
        },
        {
            "inputs": [
                {
                    "internalType": "uint256",
                    "name": "blockNumber",
                    "type": "uint256"
                }
            ],
            "name": "quorum",
            "outputs": [
                {
                    "internalType": "uint256",
                    "name": "",
                    "type": "uint256"
                }
            ],
            "stateMutability": "view",
            "type": "function"
        },
        {
            "inputs": [],
            "name": "quorumDenominator",
            "outputs": [
                {
                    "internalType": "uint256",
                    "name": "",
                    "type": "uint256"
                }
            ],
            "stateMutability": "view",
            "type": "function"
        },
        {
            "inputs": [
                {
                    "internalType": "uint256",
                    "name": "blockNumber",
                    "type": "uint256"
                }
            ],
            "name": "quorumNumerator",
            "outputs": [
                {
                    "internalType": "uint256",
                    "name": "",
                    "type": "uint256"
                }
            ],
            "stateMutability": "view",
            "type": "function"
        },
        {
            "inputs": [],
            "name": "quorumNumerator",
            "outputs": [
                {
                    "internalType": "uint256",
                    "name": "",
                    "type": "uint256"
                }
            ],
            "stateMutability": "view",
            "type": "function"
        },
        {
            "inputs": [
                {
                    "internalType": "address",
                    "name": "target",
                    "type": "address"
                },
                {
                    "internalType": "uint256",
                    "name": "value",
                    "type": "uint256"
                },
                {
                    "internalType": "bytes",
                    "name": "data",
                    "type": "bytes"
                }
            ],
            "name": "relay",
            "outputs": [],
            "stateMutability": "nonpayable",
            "type": "function"
        },
        {
            "inputs": [],
            "name": "renounceOwnership",
            "outputs": [],
            "stateMutability": "nonpayable",
            "type": "function"
        },
        {
            "inputs": [
                {
                    "internalType": "uint256",
                    "name": "newProposalThreshold",
                    "type": "uint256"
                }
            ],
            "name": "setProposalThreshold",
            "outputs": [],
            "stateMutability": "nonpayable",
            "type": "function"
        },
        {
            "inputs": [
                {
                    "internalType": "uint256",
                    "name": "newVotingDelay",
                    "type": "uint256"
                }
            ],
            "name": "setVotingDelay",
            "outputs": [],
            "stateMutability": "nonpayable",
            "type": "function"
        },
        {
            "inputs": [
                {
                    "internalType": "uint256",
                    "name": "newVotingPeriod",
                    "type": "uint256"
                }
            ],
            "name": "setVotingPeriod",
            "outputs": [],
            "stateMutability": "nonpayable",
            "type": "function"
        },
        {
            "inputs": [
                {
                    "internalType": "uint256",
                    "name": "proposalId",
                    "type": "uint256"
                }
            ],
            "name": "state",
            "outputs": [
                {
                    "internalType": "enum IGovernorUpgradeable.ProposalState",
                    "name": "",
                    "type": "uint8"
                }
            ],
            "stateMutability": "view",
            "type": "function"
        },
        {
            "inputs": [
                {
                    "internalType": "bytes4",
                    "name": "interfaceId",
                    "type": "bytes4"
                }
            ],
            "name": "supportsInterface",
            "outputs": [
                {
                    "internalType": "bool",
                    "name": "",
                    "type": "bool"
                }
            ],
            "stateMutability": "view",
            "type": "function"
        },
        {
            "inputs": [],
            "name": "token",
            "outputs": [
                {
                    "internalType": "contract IVotesUpgradeable",
                    "name": "",
                    "type": "address"
                }
            ],
            "stateMutability": "view",
            "type": "function"
        },
        {
            "inputs": [
                {
                    "internalType": "address",
                    "name": "newOwner",
                    "type": "address"
                }
            ],
            "name": "transferOwnership",
            "outputs": [],
            "stateMutability": "nonpayable",
            "type": "function"
        },
        {
            "inputs": [
                {
                    "internalType": "uint256",
                    "name": "newQuorumNumerator",
                    "type": "uint256"
                }
            ],
            "name": "updateQuorumNumerator",
            "outputs": [],
            "stateMutability": "nonpayable",
            "type": "function"
        },
        {
            "inputs": [
                {
                    "internalType": "address",
                    "name": "newImplementation",
                    "type": "address"
                }
            ],
            "name": "upgradeTo",
            "outputs": [],
            "stateMutability": "nonpayable",
            "type": "function"
        },
        {
            "inputs": [
                {
                    "internalType": "address",
                    "name": "newImplementation",
                    "type": "address"
                },
                {
                    "internalType": "bytes",
                    "name": "data",
                    "type": "bytes"
                }
            ],
            "name": "upgradeToAndCall",
            "outputs": [],
            "stateMutability": "payable",
            "type": "function"
        },
        {
            "inputs": [],
            "name": "version",
            "outputs": [
                {
                    "internalType": "string",
                    "name": "",
                    "type": "string"
                }
            ],
            "stateMutability": "view",
            "type": "function"
        },
        {
            "inputs": [],
            "name": "votingDelay",
            "outputs": [
                {
                    "internalType": "uint256",
                    "name": "",
                    "type": "uint256"
                }
            ],
            "stateMutability": "view",
            "type": "function"
        },
        {
            "inputs": [],
            "name": "votingPeriod",
            "outputs": [
                {
                    "internalType": "uint256",
                    "name": "",
                    "type": "uint256"
                }
            ],
            "stateMutability": "view",
            "type": "function"
        },
        {
            "stateMutability": "payable",
            "type": "receive"
        }
    ],
    "bytecode": "0x60a0604052306080523480156200001557600080fd5b506200002062000026565b620000e8565b600054610100900460ff1615620000935760405162461bcd60e51b815260206004820152602760248201527f496e697469616c697a61626c653a20636f6e747261637420697320696e697469604482015266616c697a696e6760c81b606482015260840160405180910390fd5b60005460ff9081161015620000e6576000805460ff191660ff9081179091556040519081527f7f26b83ff96e1f2b6a682f133852f6798a09c465da95921460cefb38474024989060200160405180910390a15b565b6080516141b96200012060003960008181610c9101528181610cd101528181610efc01528181610f3c0152610fcf01526141b96000f3fe60806040526004361061026b5760003560e01c8063715018a611610144578063c4d66de8116100b6578063eb9019d41161007a578063eb9019d4146107ff578063ece40cc11461081f578063f23a6e611461083f578063f2fde38b1461086b578063f8ce560a1461088b578063fc0c546a146108ab57600080fd5b8063c4d66de814610725578063c59057e414610745578063dd4e2ba514610765578063deaaa7cc146107ab578063ea0217cf146107df57600080fd5b80639a802a6d116101085780639a802a6d1461066f578063a7713a701461068f578063b58131b0146106a4578063bc197c81146106b9578063c01f9e37146106e5578063c28bc2fa1461070557600080fd5b8063715018a6146105d35780637b3c71d3146105e85780637d5e81e2146106085780638da5cb5b1461062857806397c3d3341461065b57600080fd5b80633bccf4fd116101dd578063544ffc9c116101a1578063544ffc9c146104d357806354fd4d501461052957806356781388146105535780635f398a141461057357806360c4247f1461059357806370b0f660146105b357600080fd5b80633bccf4fd146104135780633e4f49e61461043357806343859632146104605780634f1ef286146104ab57806352d1902d146104be57600080fd5b8063150b7a021161022f578063150b7a02146103335780632656227d146103775780632d63f6931461038a5780632fe3e261146103aa5780633659cfe6146103de5780633932abb1146103fe57600080fd5b806301ffc9a71461027957806302a251a3146102ae57806303420181146102d157806306f3f9e6146102f157806306fdde031461031157600080fd5b3661027457005b005b600080fd5b34801561028557600080fd5b50610299610294366004613230565b6108cc565b60405190151581526020015b60405180910390f35b3480156102ba57600080fd5b506102c3610939565b6040519081526020016102a5565b3480156102dd57600080fd5b506102c36102ec36600461336e565b610949565b3480156102fd57600080fd5b5061027261030c366004613414565b610a41565b34801561031d57600080fd5b50610326610a91565b6040516102a59190613485565b34801561033f57600080fd5b5061035e61034e3660046134ad565b630a85bd0160e11b949350505050565b6040516001600160e01b031990911681526020016102a5565b6102c3610385366004613689565b610b23565b34801561039657600080fd5b506102c36103a5366004613414565b610c4f565b3480156103b657600080fd5b506102c37fb3b3f3b703cd84ce352197dcff232b1b5d3cfb2025ce47cf04742d0651f1af8881565b3480156103ea57600080fd5b506102726103f9366004613718565b610c86565b34801561040a57600080fd5b506102c3610d63565b34801561041f57600080fd5b506102c361042e366004613735565b610d6e565b34801561043f57600080fd5b5061045361044e366004613414565b610de4565b6040516102a59190613799565b34801561046c57600080fd5b5061029961047b3660046137c1565b600082815261012f602090815260408083206001600160a01b038516845260030190915290205460ff1692915050565b6102726104b93660046137f1565b610ef1565b3480156104ca57600080fd5b506102c3610fc2565b3480156104df57600080fd5b5061050e6104ee366004613414565b600090815261012f60205260409020805460018201546002909201549092565b604080519384526020840192909252908201526060016102a5565b34801561053557600080fd5b506040805180820190915260018152603160f81b6020820152610326565b34801561055f57600080fd5b506102c361056e366004613840565b611075565b34801561057f57600080fd5b506102c361058e36600461386c565b61109e565b34801561059f57600080fd5b506102c36105ae366004613414565b6110e8565b3480156105bf57600080fd5b506102726105ce366004613414565b611182565b3480156105df57600080fd5b506102726111c6565b3480156105f457600080fd5b506102c36106033660046138ef565b6111da565b34801561061457600080fd5b506102c3610623366004613948565b61122c565b34801561063457600080fd5b506101c6546001600160a01b03165b6040516001600160a01b0390911681526020016102a5565b34801561066757600080fd5b5060646102c3565b34801561067b57600080fd5b506102c361068a3660046139fc565b6114ef565b34801561069b57600080fd5b506102c3611506565b3480156106b057600080fd5b506102c3611525565b3480156106c557600080fd5b5061035e6106d4366004613a54565b63bc197c8160e01b95945050505050565b3480156106f157600080fd5b506102c3610700366004613414565b611530565b34801561071157600080fd5b50610272610720366004613ae7565b61155f565b34801561073157600080fd5b50610272610740366004613718565b6115e3565b34801561075157600080fd5b506102c3610760366004613689565b61175d565b34801561077157600080fd5b506040805180820190915260208082527f737570706f72743d627261766f2671756f72756d3d666f722c6162737461696e90820152610326565b3480156107b757600080fd5b506102c37f150214d74d59b7d1e90c73fc22ef3d991dd0a76b046543d4d80ab92d2a50328f81565b3480156107eb57600080fd5b506102726107fa366004613414565b611797565b34801561080b57600080fd5b506102c361081a366004613b2a565b6117db565b34801561082b57600080fd5b5061027261083a366004613414565b6117fc565b34801561084b57600080fd5b5061035e61085a366004613b56565b63f23a6e6160e01b95945050505050565b34801561087757600080fd5b50610272610886366004613718565b611840565b34801561089757600080fd5b506102c36108a6366004613414565b6118b6565b3480156108b757600080fd5b5061016154610643906001600160a01b031681565b60006001600160e01b0319821663bf26d89760e01b14806108fd57506001600160e01b031982166379dd796f60e01b145b8061091857506001600160e01b03198216630271189760e51b145b8061093357506301ffc9a760e01b6001600160e01b03198316145b92915050565b600061094460fe5490565b905090565b6000806109ed6109e57fb3b3f3b703cd84ce352197dcff232b1b5d3cfb2025ce47cf04742d0651f1af888c8c8c8c604051610985929190613bbe565b60405180910390208b805190602001206040516020016109ca959493929190948552602085019390935260ff9190911660408401526060830152608082015260a00190565b604051602081830303815290604052805190602001206118c1565b86868661190f565b9050610a338a828b8b8b8080601f0160208091040260200160405190810160405280939291908181526020018383808284376000920191909152508d925061192d915050565b9a9950505050505050505050565b333014610a695760405162461bcd60e51b8152600401610a6090613bce565b60405180910390fd5b610a85565b80610a7960cd611a8e565b14610a8357610a6e565b505b610a8e81611b0d565b50565b606060cb8054610aa090613c05565b80601f0160208091040260200160405190810160405280929190818152602001828054610acc90613c05565b8015610b195780601f10610aee57610100808354040283529160200191610b19565b820191906000526020600020905b815481529060010190602001808311610afc57829003601f168201915b5050505050905090565b600080610b328686868661175d565b90506000610b3f82610de4565b90506004816007811115610b5557610b55613783565b1480610b7257506005816007811115610b7057610b70613783565b145b610bc85760405162461bcd60e51b815260206004820152602160248201527f476f7665726e6f723a2070726f706f73616c206e6f74207375636365737366756044820152601b60fa1b6064820152608401610a60565b600082815260cc602052604090819020600201805460ff19166001179055517f712ae1383f79ac853f8d882153778e0260ef8f03b504e2866e0593e04d2b291f90610c169084815260200190565b60405180910390a1610c2b8288888888611c56565b610c388288888888611ce3565b610c458288888888611c56565b5095945050505050565b600081815260cc602090815260408083208151928301909152546001600160401b0316908190525b6001600160401b031692915050565b306001600160a01b037f0000000000000000000000000000000000000000000000000000000000000000161415610ccf5760405162461bcd60e51b8152600401610a6090613c40565b7f00000000000000000000000000000000000000000000000000000000000000006001600160a01b0316610d18600080516020614114833981519152546001600160a01b031690565b6001600160a01b031614610d3e5760405162461bcd60e51b8152600401610a6090613c8c565b610d4781611de2565b60408051600080825260208201909252610a8e91839190611dea565b600061094460fd5490565b604080517f150214d74d59b7d1e90c73fc22ef3d991dd0a76b046543d4d80ab92d2a50328f602082015290810186905260ff851660608201526000908190610dbc906109e5906080016109ca565b9050610dd987828860405180602001604052806000815250611f69565b979650505050505050565b600081815260cc60205260408120600281015460ff1615610e085750600792915050565b6002810154610100900460ff1615610e235750600292915050565b6000610e2e84610c4f565b905080610e7d5760405162461bcd60e51b815260206004820152601d60248201527f476f7665726e6f723a20756e6b6e6f776e2070726f706f73616c2069640000006044820152606401610a60565b438110610e8e575060009392505050565b6000610e9985611530565b9050438110610ead57506001949350505050565b610eb685611f95565b8015610ed65750600085815261012f602052604090208054600190910154115b15610ee657506004949350505050565b506003949350505050565b306001600160a01b037f0000000000000000000000000000000000000000000000000000000000000000161415610f3a5760405162461bcd60e51b8152600401610a6090613c40565b7f00000000000000000000000000000000000000000000000000000000000000006001600160a01b0316610f83600080516020614114833981519152546001600160a01b031690565b6001600160a01b031614610fa95760405162461bcd60e51b8152600401610a6090613c8c565b610fb282611de2565b610fbe82826001611dea565b5050565b6000306001600160a01b037f000000000000000000000000000000000000000000000000000000000000000016146110625760405162461bcd60e51b815260206004820152603860248201527f555550535570677261646561626c653a206d757374206e6f742062652063616c60448201527f6c6564207468726f7567682064656c656761746563616c6c00000000000000006064820152608401610a60565b5060008051602061411483398151915290565b60008033905061109684828560405180602001604052806000815250611f69565b949350505050565b600080339050610dd987828888888080601f0160208091040260200160405190810160405280939291908181526020018383808284376000920191909152508a925061192d915050565b61019554600090806110ff57505061019454919050565b600061019561110f600184613cee565b8154811061111f5761111f613d05565b60009182526020918290206040805180820190915291015463ffffffff81168083526401000000009091046001600160e01b0316928201929092529150841061117657602001516001600160e01b03169392505050565b61109661019585611fcd565b3330146111a15760405162461bcd60e51b8152600401610a6090613bce565b6111bd565b806111b160cd611a8e565b146111bb576111a6565b505b610a8e816120dc565b6111ce61211d565b6111d86000612178565b565b60008033905061122286828787878080601f016020809104026020016040519081016040528093929190818152602001838380828437600092019190915250611f6992505050565b9695505050505050565b6000611236611525565b6112453361081a600143613cee565b10156112ad5760405162461bcd60e51b815260206004820152603160248201527f476f7665726e6f723a2070726f706f73657220766f7465732062656c6f7720706044820152701c9bdc1bdcd85b081d1a1c995cda1bdb19607a1b6064820152608401610a60565b60006112c2868686868051906020012061175d565b905084518651146112e55760405162461bcd60e51b8152600401610a6090613d1b565b83518651146113065760405162461bcd60e51b8152600401610a6090613d1b565b60008651116113575760405162461bcd60e51b815260206004820152601860248201527f476f7665726e6f723a20656d7074792070726f706f73616c00000000000000006044820152606401610a60565b600081815260cc6020908152604091829020825191820190925281546001600160401b031690819052156113d75760405162461bcd60e51b815260206004820152602160248201527f476f7665726e6f723a2070726f706f73616c20616c72656164792065786973746044820152607360f81b6064820152608401610a60565b60006113e96113e4610d63565b6121cb565b6113f2436121cb565b6113fc9190613d5c565b9050600061140b6113e4610939565b6114159083613d5c565b835467ffffffffffffffff19166001600160401b038416178455905060018301805467ffffffffffffffff19166001600160401b0383161790557f7d84a6263ae0d98d3329bd7b46bb4e8d6f98cd35a7adb45c274c8b7fd5ebd5e084338b8b8d516001600160401b0381111561148d5761148d6132b1565b6040519080825280602002602001820160405280156114c057816020015b60608152602001906001900390816114ab5790505b508c88888e6040516114da99989796959493929190613e50565b60405180910390a15091979650505050505050565b60006114fc848484612237565b90505b9392505050565b610195546000901561151d576109446101956122bd565b506101945490565b600061094460ff5490565b600081815260cc602090815260408083208151928301909152600101546001600160401b031690819052610c77565b33301461157e5760405162461bcd60e51b8152600401610a6090613bce565b61159a565b8061158e60cd611a8e565b1461159857611583565b505b6115dc8483838080601f016020809104026020016040519081016040528093929190818152602001838380828437600092019190915250889250612319915050565b5050505050565b600054610100900460ff16158080156116035750600054600160ff909116105b8061161d5750303b15801561161d575060005460ff166001145b6116805760405162461bcd60e51b815260206004820152602e60248201527f496e697469616c697a61626c653a20636f6e747261637420697320616c72656160448201526d191e481a5b9a5d1a585b1a5e995960921b6064820152608401610a60565b6000805460ff1916600117905580156116a3576000805461ff0019166101001790555b6116d06040518060400160405280600c81526020016b22b2b3b3a3b7bb32b93737b960a11b81525061233f565b6116e8600161b2fa69152d02c7e14af6800000612396565b6116f06123c8565b6116f9826123ef565b611703600461241f565b61170b61244f565b6117136123c8565b8015610fbe576000805461ff0019169055604051600181527f7f26b83ff96e1f2b6a682f133852f6798a09c465da95921460cefb3847402498906020015b60405180910390a15050565b6000848484846040516020016117769493929190613f3f565b60408051601f19818403018152919052805160209091012095945050505050565b3330146117b65760405162461bcd60e51b8152600401610a6090613bce565b6117d2565b806117c660cd611a8e565b146117d0576117bb565b505b610a8e8161247e565b60006114ff83836117f760408051602081019091526000815290565b612237565b33301461181b5760405162461bcd60e51b8152600401610a6090613bce565b611837565b8061182b60cd611a8e565b1461183557611820565b505b610a8e8161251f565b61184861211d565b6001600160a01b0381166118ad5760405162461bcd60e51b815260206004820152602660248201527f4f776e61626c653a206e6577206f776e657220697320746865207a65726f206160448201526564647265737360d01b6064820152608401610a60565b610a8e81612178565b600061093382612560565b60006109336118ce6125fe565b8360405161190160f01b6020820152602281018390526042810182905260009060620160405160208183030381529060405280519060200120905092915050565b600080600061192087878787612679565b91509150610c4581612766565b600085815260cc60205260408120600161194688610de4565b600781111561195757611957613783565b146119b05760405162461bcd60e51b815260206004820152602360248201527f476f7665726e6f723a20766f7465206e6f742063757272656e746c792061637460448201526269766560e81b6064820152608401610a60565b604080516020810190915281546001600160401b0316908190526000906119d990889086612237565b90506119e88888888488612921565b8351611a3a57866001600160a01b03167fb8e138887d0aa13bab447e82de9d5c1777041ecd21ca36ba824ff1e6c07ddda489888489604051611a2d9493929190613f8a565b60405180910390a2610dd9565b866001600160a01b03167fe2babfbac5889a709b63bb7f598b324e08bc5a4fb9ec647fb3cbc9ec07eb87128988848989604051611a7b959493929190613fb2565b60405180910390a2979650505050505050565b6000611aa98254600f81810b600160801b909204900b131590565b15611ac757604051631ed9509560e11b815260040160405180910390fd5b508054600f0b6000818152600180840160205260408220805492905583546fffffffffffffffffffffffffffffffff191692016001600160801b03169190911790915590565b6064811115611b905760405162461bcd60e51b815260206004820152604360248201527f476f7665726e6f72566f74657351756f72756d4672616374696f6e3a2071756f60448201527f72756d4e756d657261746f72206f7665722071756f72756d44656e6f6d696e616064820152623a37b960e91b608482015260a401610a60565b6000611b9a611506565b90508015801590611bac575061019554155b15611c125760408051808201909152600081526101959060208101611bd084612aa1565b6001600160e01b0390811690915282546001810184556000938452602093849020835194909301519091166401000000000263ffffffff909316929092179101555b611c1e61019583612b0a565b505060408051828152602081018490527f0553476bf02ef2726e8ce5ced78d63e26e602e4a2257b1f559418e24b46339979101611751565b6115dc565b8451811015611cdb57306001600160a01b0316858281518110611c8057611c80613d05565b60200260200101516001600160a01b03161415611ccb57611ccb838281518110611cac57611cac613d05565b60200260200101518051906020012060cd612c3590919063ffffffff16565b611cd481613ff8565b9050611c5b565b505050505050565b60006040518060600160405280602781526020016140ed60279139905060005b8551811015611dd957600080878381518110611d2157611d21613d05565b60200260200101516001600160a01b0316878481518110611d4457611d44613d05565b6020026020010151878581518110611d5e57611d5e613d05565b6020026020010151604051611d739190614013565b60006040518083038185875af1925050503d8060008114611db0576040519150601f19603f3d011682016040523d82523d6000602084013e611db5565b606091505b5091509150611dc5828286612c71565b50505080611dd290613ff8565b9050611d03565b50505050505050565b610a8e61211d565b7f4910fdfa16fed3260ed0e7147f7cc6da11a60208b5b9406d12a635614ffd91435460ff1615611e2257611e1d83612caa565b505050565b826001600160a01b03166352d1902d6040518163ffffffff1660e01b815260040160206040518083038186803b158015611e5b57600080fd5b505afa925050508015611e8b575060408051601f3d908101601f19168201909252611e889181019061402f565b60015b611eee5760405162461bcd60e51b815260206004820152602e60248201527f45524331393637557067726164653a206e657720696d706c656d656e7461746960448201526d6f6e206973206e6f74205555505360901b6064820152608401610a60565b6000805160206141148339815191528114611f5d5760405162461bcd60e51b815260206004820152602960248201527f45524331393637557067726164653a20756e737570706f727465642070726f786044820152681a58589b195555525160ba1b6064820152608401610a60565b50611e1d838383612d46565b6000611f8c85858585611f8760408051602081019091526000815290565b61192d565b95945050505050565b600081815261012f6020526040812060028101546001820154611fb89190614048565b611fc46108a685610c4f565b11159392505050565b600043821061201e5760405162461bcd60e51b815260206004820181905260248201527f436865636b706f696e74733a20626c6f636b206e6f7420796574206d696e65646044820152606401610a60565b825460005b818110156120835760006120378284612d71565b90508486600001828154811061204f5761204f613d05565b60009182526020909120015463ffffffff16111561206f5780925061207d565b61207a816001614048565b91505b50612023565b81156120c75784612095600184613cee565b815481106120a5576120a5613d05565b60009182526020909120015464010000000090046001600160e01b03166120ca565b60005b6001600160e01b031695945050505050565b60fd5460408051918252602082018390527fc565b045403dc03c2eea82b81a0465edad9e2e7fc4d97e11421c209da93d7a93910160405180910390a160fd55565b6101c6546001600160a01b031633146111d85760405162461bcd60e51b815260206004820181905260248201527f4f776e61626c653a2063616c6c6572206973206e6f7420746865206f776e65726044820152606401610a60565b6101c680546001600160a01b038381166001600160a01b0319831681179093556040519116919082907f8be0079c531659141344cd1fd0a4f28419497f9722a3daafe3b4186f6b6457e090600090a35050565b60006001600160401b038211156122335760405162461bcd60e51b815260206004820152602660248201527f53616665436173743a2076616c756520646f65736e27742066697420696e203660448201526534206269747360d01b6064820152608401610a60565b5090565b61016154604051630748d63560e31b81526001600160a01b038581166004830152602482018590526000921690633a46b1a89060440160206040518083038186803b15801561228557600080fd5b505afa158015612299573d6000803e3d6000fd5b505050506040513d601f19601f820116820180604052508101906114fc919061402f565b8054600090801561230657826122d4600183613cee565b815481106122e4576122e4613d05565b60009182526020909120015464010000000090046001600160e01b0316612309565b60005b6001600160e01b03169392505050565b60606114fc84848460405180606001604052806029815260200161413460299139612d8c565b600054610100900460ff166123665760405162461bcd60e51b8152600401610a6090614060565b61238d816123886040805180820190915260018152603160f81b602082015290565b612eb2565b610a8e81612ef3565b600054610100900460ff166123bd5760405162461bcd60e51b8152600401610a6090614060565b611e1d838383612f2d565b600054610100900460ff166111d85760405162461bcd60e51b8152600401610a6090614060565b600054610100900460ff166124165760405162461bcd60e51b8152600401610a6090614060565b610a8e81612f6f565b600054610100900460ff166124465760405162461bcd60e51b8152600401610a6090614060565b610a8e81612fb9565b600054610100900460ff166124765760405162461bcd60e51b8152600401610a6090614060565b6111d8612fe0565b600081116124de5760405162461bcd60e51b815260206004820152602760248201527f476f7665726e6f7253657474696e67733a20766f74696e6720706572696f6420604482015266746f6f206c6f7760c81b6064820152608401610a60565b60fe5460408051918252602082018390527f7e3f7f0708a84de9203036abaa450dccc85ad5ff52f78c170f3edb55cf5e8828910160405180910390a160fe55565b60ff5460408051918252602082018390527fccb45da8d5717e6c4544694297c4ba5cf151d455c9bb0ed4fc7a38411bc05461910160405180910390a160ff55565b6000606461256d836110e8565b61016154604051632394e7a360e21b8152600481018690526001600160a01b0390911690638e539e8c9060240160206040518083038186803b1580156125b257600080fd5b505afa1580156125c6573d6000803e3d6000fd5b505050506040513d601f19601f820116820180604052508101906125ea919061402f565b6125f491906140ab565b61093391906140ca565b60006109447f8b73c3c69bb8fe3d512ecc4cf759cc79239f7b179b0ffacaa9a75d522b39400f61262d60655490565b6066546040805160208101859052908101839052606081018290524660808201523060a082015260009060c0016040516020818303038152906040528051906020012090509392505050565b6000807f7fffffffffffffffffffffffffffffff5d576e7357a4501ddfe92f46681b20a08311156126b0575060009050600361275d565b8460ff16601b141580156126c857508460ff16601c14155b156126d9575060009050600461275d565b6040805160008082526020820180845289905260ff881692820192909252606081018690526080810185905260019060a0016020604051602081039080840390855afa15801561272d573d6000803e3d6000fd5b5050604051601f1901519150506001600160a01b0381166127565760006001925092505061275d565b9150600090505b94509492505050565b600081600481111561277a5761277a613783565b14156127835750565b600181600481111561279757612797613783565b14156127e55760405162461bcd60e51b815260206004820152601860248201527f45434453413a20696e76616c6964207369676e617475726500000000000000006044820152606401610a60565b60028160048111156127f9576127f9613783565b14156128475760405162461bcd60e51b815260206004820152601f60248201527f45434453413a20696e76616c6964207369676e6174757265206c656e677468006044820152606401610a60565b600381600481111561285b5761285b613783565b14156128b45760405162461bcd60e51b815260206004820152602260248201527f45434453413a20696e76616c6964207369676e6174757265202773272076616c604482015261756560f01b6064820152608401610a60565b60048160048111156128c8576128c8613783565b1415610a8e5760405162461bcd60e51b815260206004820152602260248201527f45434453413a20696e76616c6964207369676e6174757265202776272076616c604482015261756560f01b6064820152608401610a60565b600085815261012f602090815260408083206001600160a01b0388168452600381019092529091205460ff16156129aa5760405162461bcd60e51b815260206004820152602760248201527f476f7665726e6f72566f74696e6753696d706c653a20766f746520616c726561604482015266191e4818d85cdd60ca1b6064820152608401610a60565b6001600160a01b03851660009081526003820160205260408120805460ff1916600117905560ff168460ff1614156129fb57828160000160008282546129f09190614048565b90915550611cdb9050565b60ff841660011415612a1b57828160010160008282546129f09190614048565b60ff841660021415612a3b57828160020160008282546129f09190614048565b60405162461bcd60e51b815260206004820152603560248201527f476f7665726e6f72566f74696e6753696d706c653a20696e76616c69642076616044820152746c756520666f7220656e756d20566f74655479706560581b6064820152608401610a60565b60006001600160e01b038211156122335760405162461bcd60e51b815260206004820152602760248201527f53616665436173743a2076616c756520646f65736e27742066697420696e20326044820152663234206269747360c81b6064820152608401610a60565b8154600090819081612b1b866122bd565b9050600082118015612b5957504386612b35600185613cee565b81548110612b4557612b45613d05565b60009182526020909120015463ffffffff16145b15612bb957612b6785612aa1565b86612b73600185613cee565b81548110612b8357612b83613d05565b9060005260206000200160000160046101000a8154816001600160e01b0302191690836001600160e01b03160217905550612c27565b856000016040518060400160405280612bd143613010565b63ffffffff168152602001612be588612aa1565b6001600160e01b0390811690915282546001810184556000938452602093849020835194909301519091166401000000000263ffffffff909316929092179101555b9250839150505b9250929050565b8154600160801b90819004600f0b6000818152600180860160205260409091209390935583546001600160801b03908116939091011602179055565b60608315612c805750816114ff565b825115612c905782518084602001fd5b8160405162461bcd60e51b8152600401610a609190613485565b6001600160a01b0381163b612d175760405162461bcd60e51b815260206004820152602d60248201527f455243313936373a206e657720696d706c656d656e746174696f6e206973206e60448201526c1bdd08184818dbdb9d1c9858dd609a1b6064820152608401610a60565b60008051602061411483398151915280546001600160a01b0319166001600160a01b0392909216919091179055565b612d4f83613075565b600082511180612d5c5750805b15611e1d57612d6b83836130b5565b50505050565b6000612d8060028484186140ca565b6114ff90848416614048565b606082471015612ded5760405162461bcd60e51b815260206004820152602660248201527f416464726573733a20696e73756666696369656e742062616c616e636520666f6044820152651c8818d85b1b60d21b6064820152608401610a60565b6001600160a01b0385163b612e445760405162461bcd60e51b815260206004820152601d60248201527f416464726573733a2063616c6c20746f206e6f6e2d636f6e74726163740000006044820152606401610a60565b600080866001600160a01b03168587604051612e609190614013565b60006040518083038185875af1925050503d8060008114612e9d576040519150601f19603f3d011682016040523d82523d6000602084013e612ea2565b606091505b5091509150610dd9828286612c71565b600054610100900460ff16612ed95760405162461bcd60e51b8152600401610a6090614060565b815160209283012081519190920120606591909155606655565b600054610100900460ff16612f1a5760405162461bcd60e51b8152600401610a6090614060565b8051610fbe9060cb9060208401906131a0565b600054610100900460ff16612f545760405162461bcd60e51b8152600401610a6090614060565b612f5d836120dc565b612f668261247e565b611e1d8161251f565b600054610100900460ff16612f965760405162461bcd60e51b8152600401610a6090614060565b61016180546001600160a01b0319166001600160a01b0392909216919091179055565b600054610100900460ff16610a855760405162461bcd60e51b8152600401610a6090614060565b600054610100900460ff166130075760405162461bcd60e51b8152600401610a6090614060565b6111d833612178565b600063ffffffff8211156122335760405162461bcd60e51b815260206004820152602660248201527f53616665436173743a2076616c756520646f65736e27742066697420696e203360448201526532206269747360d01b6064820152608401610a60565b61307e81612caa565b6040516001600160a01b038216907fbc7cd75a20ee27fd9adebab32041f755214dbc6bffa90cc0225b39da2e5c2d3b90600090a250565b60606001600160a01b0383163b61311d5760405162461bcd60e51b815260206004820152602660248201527f416464726573733a2064656c65676174652063616c6c20746f206e6f6e2d636f6044820152651b9d1c9858dd60d21b6064820152608401610a60565b600080846001600160a01b0316846040516131389190614013565b600060405180830381855af49150503d8060008114613173576040519150601f19603f3d011682016040523d82523d6000602084013e613178565b606091505b5091509150611f8c828260405180606001604052806027815260200161415d60279139612c71565b8280546131ac90613c05565b90600052602060002090601f0160209004810192826131ce5760008555613214565b82601f106131e757805160ff1916838001178555613214565b82800160010185558215613214579182015b828111156132145782518255916020019190600101906131f9565b506122339291505b80821115612233576000815560010161321c565b60006020828403121561324257600080fd5b81356001600160e01b0319811681146114ff57600080fd5b803560ff8116811461326b57600080fd5b919050565b60008083601f84011261328257600080fd5b5081356001600160401b0381111561329957600080fd5b602083019150836020828501011115612c2e57600080fd5b634e487b7160e01b600052604160045260246000fd5b604051601f8201601f191681016001600160401b03811182821017156132ef576132ef6132b1565b604052919050565b60006001600160401b03831115613310576133106132b1565b613323601f8401601f19166020016132c7565b905082815283838301111561333757600080fd5b828260208301376000602084830101529392505050565b600082601f83011261335f57600080fd5b6114ff838335602085016132f7565b60008060008060008060008060e0898b03121561338a57600080fd5b8835975061339a60208a0161325a565b965060408901356001600160401b03808211156133b657600080fd5b6133c28c838d01613270565b909850965060608b01359150808211156133db57600080fd5b506133e88b828c0161334e565b9450506133f760808a0161325a565b925060a0890135915060c089013590509295985092959890939650565b60006020828403121561342657600080fd5b5035919050565b60005b83811015613448578181015183820152602001613430565b83811115612d6b5750506000910152565b6000815180845261347181602086016020860161342d565b601f01601f19169290920160200192915050565b6020815260006114ff6020830184613459565b6001600160a01b0381168114610a8e57600080fd5b600080600080608085870312156134c357600080fd5b84356134ce81613498565b935060208501356134de81613498565b92506040850135915060608501356001600160401b0381111561350057600080fd5b61350c8782880161334e565b91505092959194509250565b60006001600160401b03821115613531576135316132b1565b5060051b60200190565b600082601f83011261354c57600080fd5b8135602061356161355c83613518565b6132c7565b82815260059290921b8401810191818101908684111561358057600080fd5b8286015b848110156135a457803561359781613498565b8352918301918301613584565b509695505050505050565b600082601f8301126135c057600080fd5b813560206135d061355c83613518565b82815260059290921b840181019181810190868411156135ef57600080fd5b8286015b848110156135a457803583529183019183016135f3565b600082601f83011261361b57600080fd5b8135602061362b61355c83613518565b82815260059290921b8401810191818101908684111561364a57600080fd5b8286015b848110156135a45780356001600160401b0381111561366d5760008081fd5b61367b8986838b010161334e565b84525091830191830161364e565b6000806000806080858703121561369f57600080fd5b84356001600160401b03808211156136b657600080fd5b6136c28883890161353b565b955060208701359150808211156136d857600080fd5b6136e4888389016135af565b945060408701359150808211156136fa57600080fd5b506137078782880161360a565b949793965093946060013593505050565b60006020828403121561372a57600080fd5b81356114ff81613498565b600080600080600060a0868803121561374d57600080fd5b8535945061375d6020870161325a565b935061376b6040870161325a565b94979396509394606081013594506080013592915050565b634e487b7160e01b600052602160045260246000fd5b60208101600883106137bb57634e487b7160e01b600052602160045260246000fd5b91905290565b600080604083850312156137d457600080fd5b8235915060208301356137e681613498565b809150509250929050565b6000806040838503121561380457600080fd5b823561380f81613498565b915060208301356001600160401b0381111561382a57600080fd5b6138368582860161334e565b9150509250929050565b6000806040838503121561385357600080fd5b823591506138636020840161325a565b90509250929050565b60008060008060006080868803121561388457600080fd5b853594506138946020870161325a565b935060408601356001600160401b03808211156138b057600080fd5b6138bc89838a01613270565b909550935060608801359150808211156138d557600080fd5b506138e28882890161334e565b9150509295509295909350565b6000806000806060858703121561390557600080fd5b843593506139156020860161325a565b925060408501356001600160401b0381111561393057600080fd5b61393c87828801613270565b95989497509550505050565b6000806000806080858703121561395e57600080fd5b84356001600160401b038082111561397557600080fd5b6139818883890161353b565b9550602087013591508082111561399757600080fd5b6139a3888389016135af565b945060408701359150808211156139b957600080fd5b6139c58883890161360a565b935060608701359150808211156139db57600080fd5b508501601f810187136139ed57600080fd5b61350c878235602084016132f7565b600080600060608486031215613a1157600080fd5b8335613a1c81613498565b92506020840135915060408401356001600160401b03811115613a3e57600080fd5b613a4a8682870161334e565b9150509250925092565b600080600080600060a08688031215613a6c57600080fd5b8535613a7781613498565b94506020860135613a8781613498565b935060408601356001600160401b0380821115613aa357600080fd5b613aaf89838a016135af565b94506060880135915080821115613ac557600080fd5b613ad189838a016135af565b935060808801359150808211156138d557600080fd5b60008060008060608587031215613afd57600080fd5b8435613b0881613498565b93506020850135925060408501356001600160401b0381111561393057600080fd5b60008060408385031215613b3d57600080fd5b8235613b4881613498565b946020939093013593505050565b600080600080600060a08688031215613b6e57600080fd5b8535613b7981613498565b94506020860135613b8981613498565b9350604086013592506060860135915060808601356001600160401b03811115613bb257600080fd5b6138e28882890161334e565b8183823760009101908152919050565b60208082526018908201527f476f7665726e6f723a206f6e6c79476f7665726e616e63650000000000000000604082015260600190565b600181811c90821680613c1957607f821691505b60208210811415613c3a57634e487b7160e01b600052602260045260246000fd5b50919050565b6020808252602c908201527f46756e6374696f6e206d7573742062652063616c6c6564207468726f7567682060408201526b19195b1959d85d1958d85b1b60a21b606082015260800190565b6020808252602c908201527f46756e6374696f6e206d7573742062652063616c6c6564207468726f7567682060408201526b6163746976652070726f787960a01b606082015260800190565b634e487b7160e01b600052601160045260246000fd5b600082821015613d0057613d00613cd8565b500390565b634e487b7160e01b600052603260045260246000fd5b60208082526021908201527f476f7665726e6f723a20696e76616c69642070726f706f73616c206c656e67746040820152600d60fb1b606082015260800190565b60006001600160401b03808316818516808303821115613d7e57613d7e613cd8565b01949350505050565b600081518084526020808501945080840160005b83811015613dc05781516001600160a01b031687529582019590820190600101613d9b565b509495945050505050565b600081518084526020808501945080840160005b83811015613dc057815187529582019590820190600101613ddf565b600081518084526020808501808196508360051b8101915082860160005b85811015613e43578284038952613e31848351613459565b98850198935090840190600101613e19565b5091979650505050505050565b60006101208b8352602060018060a01b038c1681850152816040850152613e798285018c613d87565b91508382036060850152613e8d828b613dcb565b915083820360808501528189518084528284019150828160051b850101838c0160005b83811015613ede57601f19878403018552613ecc838351613459565b94860194925090850190600101613eb0565b505086810360a0880152613ef2818c613dfb565b945050505050613f0d60c08401876001600160401b03169052565b6001600160401b03851660e0840152828103610100840152613f2f8185613459565b9c9b505050505050505050505050565b608081526000613f526080830187613d87565b8281036020840152613f648187613dcb565b90508281036040840152613f788186613dfb565b91505082606083015295945050505050565b84815260ff841660208201528260408201526080606082015260006112226080830184613459565b85815260ff8516602082015283604082015260a060608201526000613fda60a0830185613459565b8281036080840152613fec8185613459565b98975050505050505050565b600060001982141561400c5761400c613cd8565b5060010190565b6000825161402581846020870161342d565b9190910192915050565b60006020828403121561404157600080fd5b5051919050565b6000821982111561405b5761405b613cd8565b500190565b6020808252602b908201527f496e697469616c697a61626c653a20636f6e7472616374206973206e6f74206960408201526a6e697469616c697a696e6760a81b606082015260800190565b60008160001904831182151516156140c5576140c5613cd8565b500290565b6000826140e757634e487b7160e01b600052601260045260246000fd5b50049056fe476f7665726e6f723a2063616c6c20726576657274656420776974686f7574206d657373616765360894a13ba1a3210667c828492db98dca3e2076cc3735a920a3ca505d382bbc416464726573733a206c6f772d6c6576656c2063616c6c20776974682076616c7565206661696c6564416464726573733a206c6f772d6c6576656c2064656c65676174652063616c6c206661696c6564a2646970667358221220edc50ffef1ad84ffaffb79896bc8f26e1e90a2b994685d56da8c28a2ba14dc0064736f6c63430008090033",
    "linkReferences": {},
    "deployedLinkReferences": {}
}